:020000040000FA
:060000000A128A110E280D
:10000800FE00030EF4000408F5000A08F6000A12C0
:100018008A1193280A128A11112883133030FD009F
:100028000130FE009130FF00203084000A128A114E
:1000380082210A128A11F701F801F901FA01FB017C
:1000480083010A128A11302983120313B2007C2813
:10005800C3309F05203083120313B000B00B322841
:100068000000831203131F139F131F148316031317
:100078009F139F121F129228C3309F0520308312AE
:100088000313B000B00B46280000831203131F1798
:100098009F131F14831603139F139F121F12922876
:1000A800C3309F05203083120313B000B00B5A28C9
:1000B8000000831203131F139F171F1483160313C3
:1000C8009F139F121F129228C3309F05203083125E
:1000D8000313B000B00B6E280000831203131F1720
:1000E8009F171F14831603139F139F121F12922822
:1000F8003208B000B1013108003A03198428922867
:100108003008003A03192C28013A03194028033A09
:1001180003195428013A03196828922808000B1C6F
:1001280096289728A8288312031306189C289D2828
:10013800A1280130F300730887078618A428A5288A
:10014800A728013087020B10831203130C1FAD2858
:10015800AE28BC281F0CF300730C0F39003A031D9E
:10016800B628B728BB281E08F3007308FB000C1339
:100178000B1DBF28C028E6280B1138308100091054
:1001880009117708031DC928CA28D9288801091127
:1001980089147A080A128A11A1210A128A11831273
:1001A80003138800F701F70AE5288801091579087B
:1001B8000A128A11A1210A128A11831203138800D4
:1001C800F7010B1176088A0075088400740E830005
:1001D800FE0E7E0E0900831603130614861483167A
:1001E800031789010814831603130514861387015E
:1001F800880109118910831203138501860187017B
:1002080088018901831603138113033095000F12A7
:100218008F160F170F148112811101148114011503
:100228003830831203138100831603130C178312CB
:1002380003130C138B170B178B160B118316031351
:10024800161496148B150B1001300A128A112820E7
:100258000A128A11F70108000A128A11EF200A12FD
:100268008A117B080F3983120313B4003408FA008B
:100278007B080A128A1163210A128A110F39831224
:100288000313B4003408F9009F184B294C29562948
:10029800203083120313B400B40B502900008312DA
:1002A80003139F147B08070203185B295C295E2946
:1002B80086173529861335290A128A110E288312C2
:1002C8000313B3003308B00004300310B00CFF3E32
:1002D800031D69290F303005B10033080F39B2000A
:1002E80003300310B20DFF3E031D75290310320DB4
:1002F800310408007E088A007F0882000A128A11E9
:100308007E210A128A118000840A04087D060319D6
:100318000034FF0A0319FE0A82293F3406345B348D
:100328004F3466346D347D3407347F346F3477341A
:100338007C3439345E3479347134F1007108203EEC
:10034800840083130008F0007008F20072080800A7
:04400E00D420FF3F7C
:00000001FF
