:020000040000FA
:060000000A128A110C280F
:10000800FE00030EF1000A08F2000A128A11B7284E
:100018000A128A110F2883133030FD000030FE00C9
:10002800E730FF00203084000A128A11D8200A1213
:100038008A1183010A128A11F728F5006F28C33044
:10004800831203139F052130F300F30B2928831231
:1000580003131F139F131F14831603139F139F1259
:100068001F128528C330831203139F052130F30024
:10007800F30B3C28831203131F179F131F148316B7
:1000880003139F139F121F128528C3308312031373
:100098009F052130F300F30B4F28831203131F131E
:1000A8009F171F14831603139F139F121F1285286F
:1000B800C330831203139F052130F300F30B62282A
:1000C800831203131F179F171F14831603139F13FD
:1000D8009F121F1285287508F300F4017408003A6E
:1000E8000319772885287308003A03192328013A49
:1000F80003193628033A03194928013A03195C28D9
:10010800852808008316031306148614831603171C
:1001180089010814831603130514861387018801BF
:1001280083120313850186018701880189018316DB
:1001380003138113033095000F128F160F170F1436
:100148000C17831203130C138B170B178316031347
:10015800161496148B150B1001300A128A112120DF
:100168000A128A1108000B1CBA28BB28CD28831252
:1001780003130618C028C128C6280130F0007008EB
:1001880087070B108618C928CA28CD28013087028E
:100198000B1072088A00710E8300FE0E7E0E090095
:1001A8007E088A007F0882000A128A11D4200A1267
:1001B8008A118000840A04087D0603190034FF0AA6
:1001C8000319FE0AD8283F3406345B344F346634AA
:1001D8006D347D3407347F346F3477347C3439346C
:1001E8005E34793471340A128A1186200A128A110F
:0801F800FC280A128A110C28F0
:04400E00D420FF3F7C
:00000001FF
