:020000040000FA
:060000000A128A110C280F
:10000800FE00030EF1000A08F2000A128A114C28B9
:100018000A128A110F2883133030FD000030FE00C9
:100028007C30FF00203084000A128A116D200A12E9
:100038008A1183010A128A118C2883160313061465
:1000480086148316031789010814831603130514ED
:1000580086138701880183120313850186018701AE
:1000680088018901831603138113033095000F1249
:100078008F160F170F140C17831203130C138B17FB
:100088000B1783160313161496148B150B10080000
:100098000B1C4F2850286228831203130618552872
:1000A80056285B280130F000700887070B10861867
:1000B8005E285F286228013087020B1072088A00C8
:1000C800710E8300FE0E7E0E09007E088A007F08EE
:1000D80082000A128A1169200A128A118000840A91
:1000E80004087D0603190034FF0A0319FE0A6D2867
:1000F8003F3406345B344F3466346D347D34073412
:100108007F346F3477347C3439345E3479347134E5
:100118000A128A1121200A128A1191280A128A11B8
:020128000C28A1
:04400E00D420FF3F7C
:00000001FF
