:020000040000FA
:060000000A128A110C280F
:10000800FE00030EF1000A08F2000A128A11DC2C25
:100018000A128A110F28F901FA018313203084008B
:1000280045300A128A110A250A128A1183010A1216
:100038008A11082983120313D8004E30D0005008C3
:10004800D300F1282530590603192B282C283828E5
:100058005908D000580884005008831380000130E4
:10006800D0005008D807F128D4010130CD07FF305F
:100078004D0784000A128A110F230A128A11D90027
:10008800D000D1015108003A03194B28F128500833
:10009800003A03190329643A031956280D3A03193B
:1000A8005628F1285308840083130008D600840AD0
:1000B8000008D7000230D0005008D307D71F6528A2
:1000C80066286F280330D0005008D404D609D70911
:1000D800D60A0319D70AD901D90A5908D0005007F6
:1000E800013E84000A128A110F230A128A11D100D4
:1000F8000A128A110F230A128A11D20052085702D3
:10010800031D88285108560203188B288C288D282F
:1001180097280130D0005008D90705305906031D2B
:100128009628972871285408033903199C289D2874
:10013800A8282D30D0005808840050088313800068
:100148000130D0005008D8075908D0005008D50011
:10015800E8280A30C8000030C9005508D000500708
:10016800013E84000A128A110F230A128A11F30031
:100178000A128A110F230A128A11F4005708F6008E
:100188005608F5000A128A11C9230A128A1174083E
:1001980083120313CB007308CA000A128A110F24B2
:1001A8000A128A11831203134808303ED1005108FD
:1001B800D9005908D00058088400500883138000DB
:1001C8000130D0005008D807FF30D0005008D507BC
:1001D800550A031DF028F128AD280130CD07FF305E
:1001E8004D0784000A128A110F230A128A11D000BF
:1001F8005008D9005908031D022903292628580840
:1002080084008313800108000A128A1174240A12D8
:100218008A116230831203131A06031D1429152943
:100228003D2926080A128A11A7220A128A11831266
:10023800031325089900413083120313DB00ED30C6
:10024800DA00DA0B2529DB0B25292A298312031367
:1002580024089900413083120313DB00ED30DA00E3
:10026800DA0B3429DB0B34293929831203132308C9
:1002780099008C1E402941293D291A08D03EDA00F0
:100288005A08A2008C1E49294A2946291A08D03E34
:10029800DA005A08A1008C1E522953294F291A083E
:1002A800D03EDA005A08A0005730DA005A08CD00CC
:1002B8002208DB00DC015B08CE005C08CF003B3085
:1002C8000A128A111E200A128A1157308312031348
:1002D800DA005A08CD002108DB00DC015B08CE00FB
:1002E8005C08CF0031300A128A111E200A128A11C6
:1002F800573083120313DA005A08CD002008DB00B8
:10030800DC015B08CE005C08CF0027300A128A1196
:100318001E200A128A11313083120313DA005A0898
:10032800F3003B300A128A114B240A128A11273033
:1003380083120313DA005A08F3003B300A128A11B9
:100348004B240A128A113B300A128A11BB210A1265
:100358008A11831203134608DE004508DD005D0894
:1003680088005D0888000D290A128A110C2883125A
:100378000313CC00C3290130C7004708CC074C0839
:1003880084002030831300060319CB29CC29BF2908
:100398004C088400093000060319D329D429BF2941
:1003A800CA01CB01C9014C0884002D300006031D89
:1003B800DE29DF29E8290130C7004708C9070130CD
:1003C800C7004708CC071A2A4C0884002B300006BF
:1003D800031DEF29F0291A2A0130C7004708CC0766
:1003E8001A2A831203134C0884004B08F4004A08A5
:1003F800F3000A30F5000030F6000A128A119B2437
:100408000A128A1183130008730783120313C700A3
:100418000030031801307407C8004708D03ECA00EE
:1004280048080318013EFF3ECB00F0294C08840021
:1004380000080A128A11F8240A128A110318252AB8
:10044800262AF52983120313490803192C2A2D2A71
:10045800392A4A09C7004B09C800C70A0319C80A3C
:100468004708C5004808C6003D2A4B08C6004A0888
:10047800C500080083120313C601F41F442A452A45
:100488004C2AF309F409F30A0319F40AC601C60A47
:10049800F61F4F2A502A592AF509F609F50A0319B1
:1004A800F60A0130F7007708C606C701C8017308C5
:1004B80074040319602A612A982AC501C50A6F2A9B
:1004C80001300310F30DF40DFF3E031D652A0130C2
:1004D800F7007708C507F41F722A732A642A0130C7
:1004E8000310C70DC80DFF3E031D742A7408760259
:1004F800031D802A73087502031C832A842A8B2A09
:100508007308F5027408031CF603F6024714013059
:100518000310F40CF30CFF3E031D8C2A0130C502B6
:10052800031D972A982A732A460803199C2A9D2A8C
:10053800A22AC709C809C70A0319C80A4808F40043
:100548004708F3000800F8006430F3000030F400B6
:10055800780883120313C900CA014908F5004A083C
:10056800F6000A128A113E220A128A1173088312AF
:100578000313CB004B08A5006430F3000030F400EF
:100588007808C900CA014908F5004A08F6000A12A5
:100598008A116E230A128A11730883120313CB007F
:1005A8004B08FA000A30F3000030F4007A08C9005A
:1005B800CA014908F5004A08F6000A128A113E22C3
:1005C8000A128A11730883120313CB004B08A40084
:1005D8000A30F3000030F4007A08C900CA0149085B
:1005E800F5004A08F6000A128A116E230A128A11C7
:1005F800730883120313CB004B08A3003030C900E3
:100608004908A5073030C9004908A4073030C90097
:100618004908A307080003308A000408840A8207EF
:100628000034013400340A34003464340034E834CB
:1006380003341034273449346E34743472346F34CC
:10064800643475347A3463346134203475346E34E8
:100658002034763461346C346F34723420346D3421
:1006680065346E346F34723420346F342034693416
:100678006734753461346C34203461342034353453
:100688000D34003449346E34743472346F34643445
:1006980075347A3463346134203475346E342034DC
:1006A800763461346C346F34723420347634613487
:1006B8006C34693464346F342034643465342034E1
:1006C800303420346134203432340D34003425344D
:1006D8006434003483120313C601F61F742B752B80
:1006E8007C2BF509F609F50A0319F60AC601C60AAC
:1006F800F41F7F2B802B852BF309F409F30A0319C8
:10070800F40A7308740403198A2B8B2BBA2BC501BE
:10071800C50A992B01300310F30DF40DFF3E031D9C
:100728008F2B0130F7007708C507F41F9C2B9D2BF2
:100738008E2B74087602031DA32B73087502031C05
:10074800A62BA72BAD2B7308F5027408031CF60320
:10075800F60201300310F40CF30CFF3E031DAE2B20
:100768000130C502031DB92BBA2B9D2B460803196E
:10077800BE2BBF2BC42BF509F609F50A0319F60A97
:100788007608F4007508F300080083120313C60105
:10079800C701730874040319D22BD32B0A2CC50183
:1007A800C50AE12B01300310F30DF40DFF3E031DC4
:1007B800D72B0130F7007708C507F41FE42BE52B8A
:1007C800D62B01300310C60DC70DFF3E031DE62BC7
:1007D80074087602031DF22B73087502031CF52BAF
:1007E800F62BFD2B7308F5027408031CF603F602BA
:1007F800461401300310F40CF30CFF3E031DFE2BCE
:100808000130C502031D092C0A2CE52B4708F4000A
:100818004608F30008008312031348084904031923
:10082800162C172C462CCC01CC0A252C0130031091
:10083800C80DC90DFF3E031D1B2C0130F8007808B8
:10084800CC07C91F282C292C1A2C49084B02031D38
:100858002F2C48084A02031C322C332C392C480808
:10086800CA024908031CCB03CB0201300310C90C90
:10087800C80CFF3E031D3A2C0130CC02031D452C49
:10088800462C292C4B08C9004A08C8000800F50066
:100898007508F4007408F600552C0130F40074084B
:1008A800F6077608840083130008031D5C2C5D2C72
:1008B800512C662C0130F4007408F6070130F4005E
:1008C8007408F307730884000008F40076088400AD
:1008D800740880000008031D722C732C5E2C08001D
:1008E80083160313850183160317880189010330D2
:1008F800831603138600880183120313850186017A
:1009080087018801831603130F128F160F170F1410
:10091800811303309500161496148B150B108B1742
:100928000B170A128A11C0240A128A110800F7014B
:10093800F801731CA02CA12CA72C7508F707031825
:10094800F80A7608F80701300310F50DF60DFF3E9A
:10095800031DA82C01300310F40CF30CFF3E031DFB
:10096800AF2C73087404031DBA2CBB2C9D2C78087B
:10097800F4007708F3000800673083160313990022
:100988009A0183160317871583160313181518126F
:10099800831203139817181683160313181398163F
:1009A8008312031318138B170B170C128C120800E1
:1009B8000B1CDF2CE02CF12C831203130618E52CFA
:1009C800E62CEA2C0130F0007008A6078618ED2CFA
:1009D800EE2CF02C0130A6020B1072088A00710E62
:1009E8008300FE0E7E0E0900F400F3013A30740213
:1009F8000318FF2C002D082D30307402031C052D20
:100A0800062D082DF301F30A730C08006400800119
:0C0A1800840A04060319003404060B2DA8
:04400E00D420FF3F7C
:00000001FF
