:020000040000FA
:060000000A128A110C280F
:10000800FE00030EF1000A08F2000A128A111428F1
:100018000A128A110F28F60183010A128A11CB28C5
:100028000B1C1728182829288312031306181D28C3
:100038001E2822280130F000700888078618252815
:1000480026282828013088020B10831203138C1DE0
:100058002E282F2885281412141B332834283828D2
:10006800941F372838283F281308F0007008F60036
:1000780014139413141683160313941A442845284A
:100088006228141948284928622883120313130880
:10009800F0007008F6008C11141683160313141C54
:1000A800562857285128831203131308F0007008A4
:1000B800F5005330F000F00B5F288228941A652869
:1000C80066288228141D69286A2882288312031347
:1000D8001308F0007008F60083160313141075084F
:1000E80083120313930014165330F000F00B7A2890
:1000F800831603131418812882287C28831203137B
:100108008C1172088A00710E8300FE0E7E0E0900A3
:100118008316031308108810081188110614861412
:100128008316031789018312031388018601831636
:100138000313811303309500161496148B150B10B6
:100148008B170B170F128F160F170F1460300A1228
:100158008A11B1200A128A110800F3007308831665
:1001680003139300363083120313940080308316F0
:100178000313940001309100871507168B170B178E
:10018800831203138C11831603138C1508000A12AB
:100198008A118C200A128A11831203130808F400AA
:0C01A8007408F500D0280A128A110C28F7
:04400E00D420FF3F7C
:00000001FF
