:020000040000FA
:100000000A128A11F32FFF0000308A007F0882074E
:1000100008280A128A111D2900308A000408840A5F
:1000200082070034013400340A340034643400346C
:10003000E83403341034273450346F3472342034AD
:100040006634613476346F347234203469346E34FB
:100050006734723465347334653420346C346134FD
:100060002034633465346E34743465346E346134F2
:100070002C342034733469342034653473342034A0
:100080003C34313430343034203463346F346C34A5
:100090006F34633461347234203430340D340034BE
:1000A00049346E34743472346F34643475347A3451
:1000B00063346134203475346E34203476346134E2
:1000C0006C346F34723420346D3465346E346F3474
:1000D000723420346F3420346934673475346134B9
:1000E0006C3420346134203435340D3400344934D8
:1000F0006E34743472346F34643475347A346334E7
:100100006134203475346E342034763461346C3488
:100110006F3472342034763461346C34693464342E
:100120006F34203464346534203430342034613406
:10013000203432340D34003450346F34723420346F
:100140006634613476346F347234203469346E34FA
:100150006734723465347334653420346C346134FC
:10016000203464346534633465346E3461340D3462
:10017000003450346F347234203466346134763451
:100180006F347234203469346E34673472346534B9
:100190007334653420346C346134203475346E34F7
:1001A00069346434613464340D3400340D345634AD
:1001B0006F346C34743461346A34653431343A34B5
:1001C000203400340D3456346F346C34743461345C
:1001D0006A34653432343A34203400340D340D340A
:0C01E00000342534643400342E34003424
:10021000F000700883120313930008008316031381
:10022000141C132914290E29080064008001840A73
:1002300004060319003404061629831203130C1E46
:10024000222923291D297008990008000A128A1101
:100250000E210A128A118312031313080800F100F9
:10026000F0013A3071020318362937293F2930301E
:100270007102031C3C293D293F29F001F00A700C52
:100280000800F300831603138712731D48294929B8
:100290004D29720894008715512970087204940042
:1002A000871173087104831203139400080003304C
:1002B000831203131A02031C5E295F296529663025
:1002C0000A128A11A5210A128A11831203138C1EA5
:1002D0006A296B2965291A08D03ED8005808A2005F
:1002E00008000630831203131A02031C78297929A7
:1002F0007F293F300A128A11A5210A128A1183121E
:1003000003138C1E842985297F291A08D03ED80022
:100310005808A10008000630831203131A02031CB8
:100320009229932999293F300A128A11A5210A128C
:100330008A11831203138C1E9E299F2999291A085A
:10034000D03ED8005808A000080083120313D5003F
:10035000D6010130D2005208D7007030D2005208C6
:10036000D4005508D2005208C7005430D3005308B7
:10037000C80056300A128A1135250A128A1108005F
:1003800067308316031399009A01831603178715A4
:1003900083160313181518128312031398171816CF
:1003A00083160313181398168312031318138B174D
:1003B0000B170C128C120800831603138801860198
:1003C0000F128F160F170F140711F001F101F20130
:1003D00020300A128A1141210A128A110A128A1146
:1003E000C0210A128A118312031385018601870135
:1003F00088018901080083120313D8005808D5002A
:100400005508D900DA015330D5005508D7005208F5
:10041000D5005508C7005730D6005608C8005930D7
:100420000A128A1135250A128A11831203135908F8
:100430008400831380010800F401F501701C212A57
:10044000222A282A7208F4070318F50A7308F50708
:1004500001300310F20DF30DFF3E031D292A013078
:100460000310F10CF00CFF3E031D302A70087104DC
:10047000031D3B2A3C2A1E2A7508F1007408F0006F
:100480000800F2007208F1007108F3004B2A0130F5
:10049000F1007108F3077308840083130008031D3B
:1004A000522A532A472A5C2A0130F1007108F307C7
:1004B0000130F1007108F007700884000008F100B5
:1004C00073088400710880000008031D682A692AE7
:1004D000542A08007808790403196F2A702A9F2A81
:1004E000FD01FD0A7E2A01300310F80DF90DFF3ED3
:1004F000031D742A0130FC007C08FD07F91F812AC6
:10050000822A732A79087B02031D882A78087A02D6
:10051000031C8B2A8C2A922A7808FA027908031C79
:10052000FB03FB0201300310F90CF80CFF3E031D26
:10053000932A0130FD02031D9E2A9F2A822A7B08EE
:10054000F9007A08F8000800F501F6017008710456
:100550000319AB2AAC2AE32AF701F70ABA2A0130B9
:100560000310F00DF10DFF3E031DB02A0130F40021
:100570007408F707F11FBD2ABE2AAF2A0130031005
:10058000F50DF60DFF3E031DBF2A71087302031D12
:10059000CB2A70087202031CCE2ACF2AD62A7008F2
:1005A000F2027108031CF303F30275140130031007
:1005B000F10CF00CFF3E031DD72A0130F702031D9A
:1005C000E22AE32ABE2A7608F1007508F000080046
:1005D000C5300A128A11A5210A128A1141308312EC
:1005E0000313D900ED30D800D80BF42AD90BF42A24
:1005F000F92A83120313260899004130831203134A
:10060000D900ED30D800D80B032BD90B032B082BC6
:10061000E3300A128A11A5210A128A11413083128D
:100620000313D900ED30D800D80B142BD90B142BA1
:10063000192B8312031325089900413083120313E9
:10064000D900ED30D800D80B232BD90B232B282B26
:100650008312031324089900413083120313D90035
:10066000ED30D800D80B322BD90B322B372BDD30A5
:100670000A128A11A5210A128A110800D1300A1221
:100680008A11A5210A128A11413083120313D9005D
:10069000ED30D800D80B4A2BD90B4A2B4F2B8312A5
:1006A000031326089900413083120313D900ED305B
:1006B000D800D80B592BD90B592B5E2BE3300A12DB
:1006C0008A11A5210A128A11413083120313D9001D
:1006D000ED30D800D80B6A2BD90B6A2B6F2B831205
:1006E000031325089900413083120313D900ED301C
:1006F000D800D80B792BD90B792B7E2B83120313BF
:1007000024089900413083120313D900ED30D8003A
:10071000D80B882BD90B882B8D2BDD300A128A1130
:10072000A5210A128A110800F601F31F982B992BB4
:10073000A02BF209F309F20A0319F30AF601F60AEB
:10074000F11FA32BA42BA92BF009F109F00A03191F
:10075000F10A700871040319AE2BAF2BDE2BF501E3
:10076000F50ABD2B01300310F00DF10DFF3E031D06
:10077000B32B0130F4007408F507F11FC02BC12B17
:10078000B22B71087302031DC72B70087202031C81
:10079000CA2BCB2BD12B7008F2027108031CF30378
:1007A000F30201300310F10CF00CFF3E031DD22BBD
:1007B0000130F502031DDD2BDE2BC12B760803195A
:1007C000E22BE32BE82BF209F309F20A0319F30AEF
:1007D0007308F1007208F0000800FC006430F000BB
:1007E0000030F1007C08F900FA017908F2007A087B
:1007F000F3000A128A1153240A128A117008FB00AE
:100800007B0883120313A6006430F0000030F1006F
:100810007C08F900FA017908F2007A08F3000A125C
:100820008A1194230A128A117008FB007B08831234
:100830000313A3000A30F0000030F1002308F90090
:10084000FA017908F2007A08F3000A128A11532497
:100850000A128A117008FB007B0883120313A5009B
:100860000A30F0000030F1002308F900FA0179089D
:10087000F2007A08F3000A128A1194230A128A11EC
:100880007008FB007B0883120313A4003030F900CA
:100890007908A6073030F9007908A5073030F9004B
:1008A0007908A4070800F601F11F572C582C5F2C7B
:1008B000F009F109F00A0319F10AF601F60AF31F2B
:1008C000622C632C6C2CF209F309F20A0319F30A67
:1008D0000130F4007408F606F701F801700871049D
:1008E0000319732C742CAB2CF501F50A822C013002
:1008F0000310F00DF10DFF3E031D782C0130F400C4
:100900007408F507F11F852C862C772C0130031015
:10091000F70DF80DFF3E031D872C71087302031DB0
:10092000932C70087202031C962C972C9E2C700836
:10093000F2027108031CF303F30277140130031071
:10094000F10CF00CFF3E031D9F2C0130F502031D3E
:10095000AA2CAB2C862C76080319AF2CB02CB52C06
:10096000F709F809F70A0319F80A7808F100770877
:10097000F0000800FD00C02C0130F8007808FD07E9
:100980007D0884002030831300060319C82CC92C6D
:10099000BC2C7D088400093000060319D02CD12C12
:1009A000BC2CFB01FC01FA017D0884002D300006FF
:1009B000031DDB2CDC2CE52C0130F8007808FA074D
:1009C0000130F8007808FD07132D7D0884002B30D6
:1009D0000006031DEC2CED2C132D0130F8007808D7
:1009E000FD07132D7D0884007C08F1007B08F000D2
:1009F0000A30F2000030F3000A128A111C220A1297
:100A00008A11831300087007F800003003180130C2
:100A10007107F9007808D03EFB0079080318013E01
:100A2000FF3EFC00ED2C7D08840000080A128A11AC
:100A30002F210A128A1103181E2D1F2DF22C7A085D
:100A40000319232D242D302D7B09F8007C09F90092
:100A5000F80A0319F90A7808F6007908F700342D26
:100A60007C08F7007B08F600080083120313D1000E
:100A7000522E2530500603193E2D3F2D652D510A6B
:100A80008400831300080319462D472D562D500866
:100A9000C9004908F000510A840000080A128A11AE
:100AA00003200A128A1183120313382D5008C9003B
:100AB0005108840000088400490880000130C90002
:100AC0005108840049088007382DCC010130C70740
:100AD000FF30470784000A128A110C200A128A117B
:100AE000D000C900CA014A08003A0319782D522ED5
:100AF0004908003A0319662E643A0319832D0D3A0A
:100B00000319832D522E4808840083130008C9005E
:100B100002308007490884000008CE00840A0008DB
:100B2000CF00CF1F942D952D9E2D0330C90049086D
:100B3000CC04CE09CF09CE0A0319CF0AD001D00ABE
:100B40005008C9004907013E84000A128A110C208E
:100B50000A128A11CA000A128A110C200A128A117A
:100B6000CB004B084F02031DB72D4A084E02031855
:100B7000BA2DBB2DBC2DC62D0130C9004908D007A8
:100B800005305006031DC52DC62DA02D4C08033978
:100B90000319CB2DCC2DEF2D510A840083130008AF
:100BA0000319D32DD42DE12D2D30C9004908F000B3
:100BB000510A840000080A128A1103200A128A11BD
:100BC000EF2D2D30C9005108840000088400490829
:100BD00080000130C9005108840049088007831251
:100BE00003135008C9004908CD00472E0A30F80009
:100BF0000030F9004D08C9004907013E84000A127F
:100C00008A110C200A128A11F0000A128A110C2093
:100C10000A128A11F1004F08F3004E08F2000A127E
:100C20008A11A4220A128A117108FB007008FA00C6
:100C30000A128A116A220A128A117808303E831237
:100C40000313CA004A08D000510A84008313000825
:100C500003192B2E2C2E392E5008C9004908F000FC
:100C6000510A840000080A128A1103200A128A110C
:100C7000472E5008C9005108840000088400490824
:100C800080000130C9005108840049088007FF3006
:100C900083120313C9004908CD074D0A031D512EC5
:100CA000522EF62D013083120313C707FF3047077A
:100CB00084000A128A110C200A128A11C9004908FC
:100CC000D0005008031D652E662E392DC701C801BE
:100CD00008000A128A11DC210A128A1183120313F6
:100CE0000711C73083120313DB00762EDB0B752E42
:100CF000792E0A300A128A1108210A128A110A1260
:100D00008A1126210A128A1183120313DB005B0861
:100D1000A800C73083120313DB008E2EDB0B8D2E51
:100D2000912E0A300A128A1108210A128A110A1217
:100D30008A1126210A128A1183120313DB005B0831
:100D4000A700C73083120313DB00A62EDB0BA52EF2
:100D5000A92E831203130715413083120313DC00FD
:100D6000ED30DB00DB0BB22EDC0BB22EB72E831284
:100D7000031328080A128A11ED230A128A110A1293
:100D80008A11E8220A128A11413083120313DC000F
:100D9000ED30DB00DB0BCA2EDC0BCA2ECF2E83120C
:100DA000031327080A128A11ED230A128A110A1264
:100DB0008A113E230A128A11413083120313DC0088
:100DC000ED30DB00DB0BE22EDC0BE22EE72E0B30EE
:100DD0000A128A11A5210A128A11831203138C1E8A
:100DE000F22EF32EED2E1A08D03EDB005B08A20097
:100DF000FE2E0A128A1157210A128A1133308312E9
:100E000003131A020318052F062FF92E8B300A122E
:100E10008A11A5210A128A11831203138C1E112F25
:100E2000122F0C2F1A08D03EDB005B08A100023005
:100E30002206031D1C2F1D2F2B2F232F0A128A1170
:100E400071210A128A113630831203131A02031811
:100E50002A2F2B2F1E2FA8300A128A11A5210A1221
:100E60008A11831203138C1E362F372F312F1A0845
:100E7000D03EDB005B08A00002302206031D412F9C
:100E8000422F562F05302106031D472F482F562F7E
:100E90004E2F0A128A118B210A128A1136308312C0
:100EA00003131A020318552F562F492FE030DB0089
:100EB0005B08D2002208DC00DD015C08D3005D087D
:100EC000D4003D300A128A11FB210A128A11E03047
:100ED00083120313DB005B08D2002108DC00DD0174
:100EE0005C08D3005D08D40033300A128A11FB215C
:100EF0000A128A11E03083120313DB005B08D20070
:100F00002008DC00DD015C08D3005D08D400293036
:100F10000A128A11FB210A128A1133308312031339
:100F2000DB005B08F0003D300A128A1141220A12F0
:100F30008A11293083120313DB005B08F0003D3077
:100F40000A128A1141220A128A113D300A128A11AC
:100F5000BA240A128A11770883120313DF00760875
:100F6000DE005E080A128A11ED230A128A1182300D
:100F700083120313DC00DD30DB00DB0BBD2FDC0B49
:100F8000BD2F8312031326089900823083120313A6
:100F9000DC00DD30DB00DB0BCB2FDC0BCB2F831237
:100FA000031325089900823083120313DC00DD301F
:100FB000DB00DB0BD92FDC0BD92F831203132408A2
:100FC0009900823083120313DC00DD30DB00DB0B81
:100FD000E72FDC0BE72F831203135E0888006E2EC9
:100FE0000A128A11002883132030840047300A1225
:100FF0008A1115210A128A1183010A128A11692E97
:04400E00D420FF3F7C
:00000001FF
