:020000040000FA
:100000000A128A11EB2FFF0000308A007F08820756
:1000100008280A128A11B52900308A000408840AC7
:1000200082070034013400340A340034643400346C
:10003000E8340334103427340D3456346F346C34C0
:10004000743461346A34653431343A3420340034E1
:100050000D3456346F346C34743461346A3465341E
:1000600032343A34203400340D340D340034253425
:08007000643400342E34003426
:10034000F000700883120313930008008316031350
:10035000141CAB29AC29A629080064008001840A7A
:100360000406031900340406AE29831203130C1E7D
:10037000BA29BB29B5297008990008000A128A1108
:10038000A6210A128A118312031313080800F10030
:10039000F0013A3071020318CE29CF29D729303025
:1003A0007102031CD429D529D729F001F00A700C59
:1003B0000800F300831603138712731DE029E12957
:1003C000E529720894008715E929700872049400E1
:1003D00087117308710483120313940008008312B9
:1003E0000313DF00E0010130DC005C08E100703045
:1003F000DC005C08DE005F08DC005C08D1005E30D9
:10040000DD005D08D20060300A128A117F250A12D1
:100410008A11080067308316031399009A01831626
:100420000317871583160313181518128312031365
:1004300098171816831603131813981683120313AC
:1004400018138B170B170C128C120800831603134A
:10045000880186010F128F160F170F140711F00174
:10046000F101F20120300A128A11D9210A128A11EF
:100470000A128A110A220A128A11831203138501B1
:100480008601870188018901080083120313E200B5
:100490006208DF005F08E300E4015D30DF005F0811
:1004A000E1005C08DF005F08D1006130E000600817
:1004B000D20063300A128A117F250A128A11831230
:1004C000031363088400831380010800F401F5011D
:1004D000701C6B2A6C2A722A7208F4070318F50A3A
:1004E0007308F50701300310F20DF30DFF3E031DF5
:1004F000732A01300310F10CF00CFF3E031D7A2A21
:1005000070087104031D852A862A682A7508F1007F
:100510007408F0000800F2007208F1007108F3009E
:10052000952A0130F1007108F307730884008313E2
:100530000008031D9C2A9D2A912AA62A0130F10059
:100540007108F3070130F1007108F00770088400AA
:100550000008F10073088400710880000008031D82
:10056000B22AB32A9E2A0800780879040319B92A06
:10057000BA2AE92AFD01FD0AC82A01300310F80D44
:10058000F90DFF3E031DBE2A0130FC007C08FD076B
:10059000F91FCB2ACC2ABD2A79087B02031DD22A57
:1005A00078087A02031CD52AD62ADC2A7808FA02AF
:1005B0007908031CFB03FB0201300310F90CF80C53
:1005C000FF3E031DDD2A0130FD02031DE82AE92A52
:1005D000CC2A7B08F9007A08F8000800F501F6013A
:1005E000700871040319F52AF62A2D2BF701F70A72
:1005F000042B01300310F00DF10DFF3E031DFA2A0C
:100600000130F4007408F707F11F072B082BF92AB3
:1006100001300310F50DF60DFF3E031D092B710887
:100620007302031D152B70087202031C182B192B63
:10063000202B7008F2027108031CF303F3027514F7
:1006400001300310F10CF00CFF3E031D212B013093
:10065000F702031D2C2B2D2B082B7608F1007508B3
:10066000F00008000B300A128A11EF210A128A11D9
:10067000413083120313E300ED30E200E20B3E2B26
:10068000E30B3E2B432B83120313260899004130C2
:1006900083120313E300ED30E200E20B4D2BE30B7A
:1006A0004D2B522B29300A128A11EF210A128A117E
:1006B000413083120313E300ED30E200E20B5E2BC6
:1006C000E30B5E2B632B8312031325089900413043
:1006D00083120313E300ED30E200E20B6D2BE30B1A
:1006E0006D2B722B8312031324089900413083125F
:1006F0000313E300ED30E200E20B7C2BE30B7C2BD9
:10070000812B23300A128A11EF210A128A11080064
:1007100017300A128A11EF210A128A11413083120E
:100720000313E300ED30E200E20B942BE30B942B78
:10073000992B831203132608990041308312031367
:10074000E300ED30E200E20BA32BE30BA32BA82B7D
:1007500029300A128A11EF210A128A1141308312BC
:100760000313E300ED30E200E20BB42BE30BB42BF8
:10077000B92B831203132508990041308312031308
:10078000E300ED30E200E20BC32BE30BC32BC82BDD
:100790008312031324089900413083120313E300EA
:1007A000ED30E200E20BD22BE30BD22BD72B233020
:1007B0000A128A11EF210A128A110800F601F31FAA
:1007C000E22BE32BEA2BF209F309F20A0319F30AED
:1007D000F601F60AF11FED2BEE2BF32BF009F109D0
:1007E000F00A0319F10A700871040319F82BF92BA8
:1007F000282CF501F50A072C01300310F00DF10D3E
:10080000FF3E031DFD2B0130F4007408F507F11FB6
:100810000A2C0B2CFC2B71087302031D112C700881
:100820007202031C142C152C1B2C7008F202710888
:10083000031CF303F30201300310F10CF00CFF3E34
:10084000031D1C2C0130F502031D272C282C0B2C1A
:10085000760803192C2C2D2C322CF209F309F20AFC
:100860000319F30A7308F1007208F0000800FC0095
:100870006430F0000030F1007C08F900FA017908DA
:10088000F2007A08F3000A128A119D240A128A11D2
:100890007008FB007B0883120313A6006430F0008D
:1008A0000030F1007C08F900FA017908F2007A08BA
:1008B000F3000A128A11DE230A128A117008FB0063
:1008C0007B0883120313A3000A30F0000030F1000C
:1008D0002308F900FA017908F2007A08F3000A12F5
:1008E0008A119D240A128A117008FB007B0883126A
:1008F0000313A5000A30F0000030F1002308F900CE
:10090000FA017908F2007A08F3000A128A11DE234C
:100910000A128A117008FB007B0883120313A400DB
:100920003030F9007908A6073030F9007908A507BA
:100930003030F9007908A4070800F601F11FA12C56
:10094000A22CA92CF009F109F00A0319F10AF60109
:10095000F60AF31FAC2CAD2CB62CF209F309F20AFF
:100960000319F30A0130F4007408F606F701F801E0
:10097000700871040319BD2CBE2CF52CF501F50A85
:10098000CC2C01300310F00DF10DFF3E031DC22CE5
:100990000130F4007408F507F11FCF2CD02CC12CC6
:1009A00001300310F70DF80DFF3E031DD12C710827
:1009B0007302031DDD2C70087202031CE02CE12C75
:1009C000E82C7008F2027108031CF303F302771499
:1009D00001300310F10CF00CFF3E031DE92C013037
:1009E000F502031DF42CF52CD02C76080319F92CF4
:1009F000FA2CFF2CF709F809F70A0319F80A780806
:100A0000F1007708F0000800FD000A2D0130F80021
:100A10007808FD077D088400203083130006031941
:100A2000122D132D062D7D088400093000060319B0
:100A30001A2D1B2D062DFB01FC01FA017D088400F7
:100A40002D300006031D252D262D2F2D0130F800F9
:100A50007808FA070130F8007808FD075D2D7D0859
:100A600084002B300006031D362D372D5D2D0130FF
:100A7000F8007808FD075D2D7D0884007C08F100F2
:100A80007B08F0000A30F2000030F3000A128A11ED
:100A900066220A128A11831300087007F8000030DA
:100AA000031801307107F9007808D03EFB0079087F
:100AB0000318013EFF3EFC00372D7D08840000082E
:100AC0000A128A11C7210A128A110318682D692D8A
:100AD0003C2D7A0803196D2D6E2D7A2D7B09F800B7
:100AE0007C09F900F80A0319F90A7808F600790870
:100AF000F7007E2D7C08F7007B08F60008008312C3
:100B00000313DB009C2E25305A060319882D892DEE
:100B1000AF2D5B0A8400831300080319902D912DDB
:100B2000A02D5A08D3005308F0005B0A8400000887
:100B30000A128A1103200A128A1183120313822DCA
:100B40005A08D3005B088400000884005308800022
:100B50000130D3005B08840053088007822DD60142
:100B60000130D107FF30510784000A128A110C208E
:100B70000A128A11DA00D300D4015408003A03198A
:100B8000C22D9C2E5308003A0319B02E643A031963
:100B9000CD2D0D3A0319CD2D9C2E520884008313C0
:100BA0000008D30002308007530884000008D800F2
:100BB000840A0008D900D91FDE2DDF2DE82D03306F
:100BC000D3005308D604D809D909D80A0319D90A79
:100BD000DA01DA0A5A08D3005307013E84000A12E8
:100BE0008A110C200A128A11D4000A128A110C20D0
:100BF0000A128A11D50055085902031D012E540806
:100C000058020318042E052E062E102E0130D30094
:100C10005308DA0705305A06031D0F2E102EEA2D51
:100C2000560803390319152E162E392E5B0A840037
:100C30008313000803191D2E1E2E2B2E2D30D300DA
:100C40005308F0005B0A840000080A128A1103208E
:100C50000A128A11392E2D30D3005B088400000857
:100C60008400530880000130D3005B0884005308DF
:100C70008007831203135A08D3005308D700912E1C
:100C80000A30F8000030F9005708D3005307013E3E
:100C900084000A128A110C200A128A11F0000A122A
:100CA0008A110C200A128A11F1005908F300580821
:100CB000F2000A128A11EE220A128A117108FB0050
:100CC0007008FA000A128A11B4220A128A117808EE
:100CD000303E83120313D4005408DA005B0A840008
:100CE000831300080319752E762E832E5A08D3001D
:100CF0005308F0005B0A840000080A128A110320DE
:100D00000A128A11912E5A08D3005B088400000849
:100D10008400530880000130D3005B08840053082E
:100D20008007FF3083120313D3005308D707570AF5
:100D3000031D9B2E9C2E402E013083120313D107DE
:100D4000FF30510784000A128A110C200A128A11FE
:100D5000D3005308DA005A08031DAF2EB02E832D9E
:100D6000D101D20108000A128A1126220A128A1120
:100D7000831203130711C73083120313E500C02E3B
:100D8000E50BBF2EC32E0A300A128A11A0210A12C7
:100D90008A110A128A11BE210A128A1183120313C0
:100DA000E5006508A800C73083120313E500D82EBC
:100DB000E50BD72EDB2E0A300A128A11A0210A1267
:100DC0008A110A128A11BE210A128A118312031390
:100DD000E5006508A700C73083120313E500F02E75
:100DE000E50BEF2EF32E8312031307154130831208
:100DF0000313E600ED30E500E50BFC2EE60BFC2EC0
:100E0000012F8312031328080A128A1137240A12A9
:100E10008A110A128A1132230A128A11413083126E
:100E20000313E600ED30E500E50B142FE60B142F5D
:100E3000192F8312031327080A128A1137240A1262
:100E40008A110A128A1188230A128A1141308312E8
:100E50000313E600ED30E500E50B2C2FE60B2C2FFD
:100E6000312F831203138C1E362F372F312F1A0880
:100E7000D03EE5006508A2008C1E3F2F402F3C2F7E
:100E80001A08D03EE5006508A1008C1E482F492FA6
:100E9000452F1A08D03EE5006508A0002630E50081
:100EA0006508DC002208E600E7016608DD00670847
:100EB000DE003D300A128A1145220A128A112630BC
:100EC00083120313E5006508DC002108E600E70152
:100ED0006608DD006708DE0029300A128A11452203
:100EE0000A128A11263083120313E5006508DC001C
:100EF0002008E600E7016608DD006708DE00A03094
:100F00000A128A1145220A128A1129308312031308
:100F1000E5006508F0003D300A128A118B220A12A2
:100F20008A11A03083120313E5006508F0003D30FC
:100F30000A128A118B220A128A113D300A128A1172
:100F400004250A128A11770883120313E900760830
:100F5000E80068080A128A1137240A128A118230BE
:100F600083120313E600DD30E500E50BB52FE60B39
:100F7000B52F8312031326089900823083120313BE
:100F8000E600DD30E500E50BC32FE60BC32F83122F
:100F9000031325089900823083120313E600DD3025
:100FA000E500E50BD12FE60BD12F831203132408A4
:100FB0009900823083120313E600DD30E500E50B73
:100FC000DF2FE60BDF2F8312031368088600B82E8D
:100FD0000A128A11002883132030840051300A122B
:100FE0008A11AD210A128A11A0308400B4300A128D
:100FF0008A11AD210A128A1183010A128A11B32EB5
:04400E00D420FF3F7C
:00000001FF
