:020000040000FA
:100000000A128A11EE2FF700F501F6011A28750879
:10001000770784000A128A1500200A128A110A1230
:100020008A15A3210A128A110130F5070318F60A6E
:100030000030F6077508770784000A128A15002039
:100040000A128A11003A031D2628272807280800CB
:100050008312031341088039C2004208CB004108D3
:10006000C2004207C3004308D200C01F3828392805
:100070003A285214520803193E283F284F28520AA2
:10008000031D432844284C280030C1000030C00024
:100090000030BF000030BE00C017C101572800303B
:1000A000C1000030C0000030BF000030BE003D087D
:1000B0008039C2004208CB063D08C2004207C30097
:1000C0004308D300BC1F65286628672853145308CB
:1000D00003196B286C287C28530A031D702871288B
:1000E00079280030BD000030BC000030BB0000307B
:1000F000BA00BC17BD0184280030BD000030BC0030
:100100000030BB000030BA003D083C043B043A0418
:10011000031D8B288C28A5280030C1000030C000AA
:100120000030BF000030BE008030C0047F30C1040A
:100130004B08C2004208C1044108BD004008BC0091
:100140003F08BB003E08BA00042A5208031DA92834
:10015000AA28B3280030BD000030BC000030BB002E
:100160000030BA00042A5208C200C3014308C50087
:1001700053084202C400031CC50344087F3ECC0060
:1001800045080318013E003ECD004108CA00400862
:10019000C9003F08C8003E08C7000030C100003059
:1001A000C0000030BF000030BE000030D100003081
:1001B000D0000030CF000030CE00D30129295308F1
:1001C0000319E328E42804290130C2000310C70DF5
:1001D000C80DC90DCA0DC20BE6280130C2000310BC
:1001E000BE0DBF0DC00DC10DC20BEF28D11FF928E8
:1001F000FA28FB283E140130C2000310CE0DCF0DAB
:10020000D00DD10DC20BFD283D084A02031D122955
:100210003C084902031D12293B084802031D12290C
:100220003A084702031C15291629252951173A08AF
:10023000C7023B08031C3B0FC8023C08031C3C0FD1
:10024000C9023D08031C3D0FCA020130C20042082A
:10025000D3071A305302031C2E292F29DF284A08FE
:1002600049044804470403193629372956294E14EE
:1002700056290130C2000310BE0DBF0DC00DC10DC7
:10028000C20B3B29D11F4529462947293E1401307D
:10029000C2000310CE0DCF0DD00DD10DC20B4929D8
:1002A000FF30CC070318CD0AFF30CD07C01F5929F6
:1002B0005A293929D301D11F5E295F297B29FF30B3
:1002C0004E05C200FF304F05C300FF305005C4008B
:1002D0007F305105C5004508440443044204031916
:1002E000722973297629D301D30A7B293E1C7929E7
:1002F0007A297B297329530803197F298029B12979
:100300000130BE07003003180130BF07003003186A
:100310000130C007003003180130C107411C91298A
:100320009229B1293E08C2003F08C3004008C4001A
:100330004108C5000130C600450DC50CC40CC30CF6
:10034000C20CC60B9C294508C1004408C0004308E4
:10035000BF004208BE000130CC070318CD0A0030B0
:10036000CD074D08803AFF0080307F02031DBA2977
:10037000FF304C02031CBD29BE29CC29FF3083125B
:100380000313CC000030CD000030C1000030C000AD
:100390000030BF000030BE00831203134D08803AC6
:1003A000FF0080307F02031DD72901304C02031863
:1003B000DA29DB29E82983120313CC01CD010030AF
:1003C000C1000030C0000030BF000030BE00CB01D3
:1003D000831203134C08C2004208D200521CF129B8
:1003E000F229F429C017F8297F30C2004208C0055D
:1003F0005208C2000310420CC3004308C1004B085E
:10040000C2004208C1049C28080083120313570845
:100410008039DC005C08E4005708DC005C07DD0084
:100420005D08E600D61F152A162A172A66146608E4
:1004300003191B2A1C2A2C2A660A031D202A212A9A
:10044000292A0030D7000030D6000030D500003017
:10045000D400D617D701342A0030D7000030D60098
:100460000030D5000030D4005B088039DC005C0827
:10047000E5006508640603193E2A3F2A402A6417EE
:100480005B08DC005C07DD005D08E500DA1F492A37
:100490004A2A4B2A6514650803194F2A502A602AF4
:1004A000650A031D542A552A5D2A0030DB000030FE
:1004B000DA000030D9000030D800DA17DB01682AF2
:1004C0000030DB000030DA000030D9000030D80006
:1004D0006608650203186D2A6E2AB22A641F712A03
:1004E000722A762A8030DC005C08E4066608DC00AC
:1004F0005C08E7006508DC005C08E6006708DC00D3
:100500005C08E5005408DC005C08E7005808DC00E3
:100510005C08D4006708DC005C08D8005508DC00E3
:100520005C08E7005908DC005C08D5006708DC00BF
:100530005C08D9005608DC005C08E7005A08DC00BB
:100540005C08D6006708DC005C08DA005708DC00AD
:100550005C08E7005B08DC005C08D7006708DC008B
:100560005C08DB00E7016508DC00DD015D08DF00F9
:1005700066085C02DE00031CDF035F08803AFF00B0
:1005800080307F02031DC62A1A305E02031CC92A6E
:10059000CA2A072B83120313570856045504540420
:1005A000031DD32AD52A0130D62A0030DC005C088E
:1005B000E7000030D7000030D6000030D500003012
:1005C000D4006508DC005C08E6000F2B671CE92AF4
:1005D000EA2AF32A6708DC0003105C0C0138DD000E
:1005E0005D08E700F52A0310E70C541CF82AF92AE5
:1005F000FA2AE7170130DC00570DD70CD60CD50CC2
:10060000D40CDC0BFC2A0130DC005C08E60783120A
:10061000031365086602031C0E2B0F2BE62A641BCE
:10062000122B132B5E2B6608031D172B182B212B67
:100630000030D7000030D6000030D5000030D400A4
:100640008C2C5808D407590803110318013E0319CC
:100650002A2BD5075A0803110318013E0319312B21
:10066000D6075B0803110318013E0319382BD7077F
:10067000571C3B2B3C2B122C671C3F2B402B492B30
:100680006708DC0003105C0C0138DD005D08E70042
:100690004B2B0310E70C541C4E2B4F2B502BE71702
:1006A0000130DC00570DD70CD60CD50CD40CDC0B6C
:1006B000522B0130DC005C08E607122C5708803A08
:1006C000FF005B08803A7F02031D702B5A08560218
:1006D000031D702B59085502031D702B5808540236
:1006E0000318732B742BCC2BFF30DC00FF30DD00A4
:1006F000FF30DE00FF30DF005808E0005908E1005D
:100700005A08E2005B08E3005408E0025508031CA5
:10071000550F8B2B8C2BE1025608031C560F912B87
:10072000922BE2025708031C570F972B982BE302DA
:100730006008DC0761080318610F9F2BA02BDD0701
:1007400062080318620FA52BA62BDE0763080318A7
:10075000630ADF075F08D7005E08D6005D08D50092
:100760005C08D4008030DC005C08E406E709E70A96
:100770006708031DBC2BBD2BDA2B0130D4070030DA
:1007800003180130D507003003180130D6070030B8
:1007900003180130D707DA2B5808D4025908031C74
:1007A000590FD5025A08031C5A0FD6025B08031CC6
:1007B0005B0FD7025708560455045404031DE12B60
:1007C000E22B0E2C6708031DE62BE72B0E2C0030C6
:1007D000D7000030D6000030D5000030D4008C2C7B
:1007E0000130DC000310D40DD50DD60DD70DDC0B78
:1007F000F22BE71FFC2BFD2BFE2B5414671C012C46
:10080000022C052C0314E70D072C0310E70D6608D6
:1008100003190B2C0C2C0E2C0130E602D61F112CC8
:10082000122CF02BE501E71F162C172C252C67083E
:100830007F3903191C2C1D2C202CE501E50A252CE1
:10084000541C232C242C252C1D2C65080319292C21
:100850002A2C5E2C0130D407003003180130D50754
:10086000003003180130D607003003180130D707D5
:10087000571C3B2C3C2C5E2C5408DC005508DD003A
:100880005608DE005708DF000130E0005F0DDF0C86
:10089000DE0CDD0CDC0CE00B462C5F08D7005E089C
:1008A000D6005D08D5005C08D400660A0319592CEF
:1008B0005A2C5E2C0130DC005C08E607660A03193E
:1008C000622C632C682C6608031D672C682C762C20
:1008D0000030D7000030D6000030D5000030D40002
:1008E0006608031D742C752C762CE401661C792C8B
:1008F0007A2C7C2CD617802C7F30DC005C08D60547
:100900006608DC0003105C0CDD005D08D700E41F06
:100910008A2C8B2C8C2CD7170800831203132308E6
:100920008039A8002808AD002308A8002807A900DE
:100930002908B300A21F9D2C9E2C9F2C3314330832
:100940000319A32CA42CB32C330A031DA82CA92C07
:10095000B12C0030A3000030A2000030A100003014
:10096000A000A217BB2C0030A3000030A200003072
:10097000A1000030A00027088039A8002808AD0693
:100980002708A8002807A9002908B200A61FC92C1B
:10099000CA2CCB2C321432080319CF2CD02CDF2CCC
:1009A000320A031DD42CD52CDD2C0030A7000030DA
:1009B000A6000030A5000030A400A617E72C0030E8
:1009C000A7000030A6000030A5000030A4003208C7
:1009D0000319EB2CEC2CF12C3308031DF02CF12C1B
:1009E000FA2C0030A3000030A2000030A10000303B
:1009F000A000ED2F2008A8002808F00026080A1201
:100A00008A154E210A128A11710883120313B90044
:100A10007008B8003808A800A901AA01AB012B088A
:100A2000B1002A08B0002908AF002808AE00390834
:100A3000A800A901AA01AB012B08B7002A08B6003B
:100A40002908B5002808B4002108A8002808F000EB
:100A500025080A128A154E210A128A11710883127A
:100A60000313B9007008B8003808A800A901AA014A
:100A7000AB012808AE07290803110318013E03192A
:100A8000422DAF072A0803110318013E0319492D0F
:100A9000B0072B0803110318013E0319502DB107AD
:100AA0003908A800A901AA01AB012808B407290840
:100AB00003110318013E03195E2DB5072A0803111F
:100AC0000318013E0319652DB6072B0803110318FF
:100AD000013E03196C2DB7072208A8002808F00072
:100AE00024080A128A154E210A128A1171088312EB
:100AF0000313B9007008B8003808A800A901AA01BA
:100B0000AB012808AE07290803110318013E031999
:100B10008A2DAF072A0803110318013E0319912DEE
:100B2000B0072B0803110318013E0319982DB107D4
:100B30003908A800A901AA01AB012808B4072908AF
:100B400003110318013E0319A62DB5072A08031146
:100B50000318013E0319AD2DB6072B080311031826
:100B6000013E0319B42DB7070830A8000310AE0DDD
:100B7000AF0DB00DB10DA80BB62D2108A8002808A7
:100B8000F00024080A128A154E210A128A117108EF
:100B900083120313B9007008B8003808A800390898
:100BA000A900AA01AB012808AE0729080311031800
:100BB000013E0319DC2DAF072A0803110318013E7B
:100BC0000319E32DB0072B0803110318013E031985
:100BD000EA2DB1072008A8002808F00025080A120D
:100BE0008A154E210A128A11710883120313B90063
:100BF0007008B8003808A8003908A900AA01AB019C
:100C00002808AE07290803110318013E0319092E0D
:100C1000AF072A0803110318013E0319102EB0076D
:100C20002B0803110318013E0319172EB1070830D2
:100C3000A8000310AE0DAF0DB00DB10DA80B192E0D
:100C40002008A8002808F00024080A128A154E215E
:100C50000A128A11710883120313B9007008B800D0
:100C60003808A8003908A900AA01AB012808AE0776
:100C7000290803110318013E03193F2EAF072A0864
:100C800003110318013E0319462EB0072B08031168
:100C90000318013E03194D2EB1072108A8002808AA
:100CA000F00026080A128A154E210A128A117108CC
:100CB00083120313B9007008B8003808A800390877
:100CC000A900AA01AB012808B407290803110318D9
:100CD000013E03196C2EB5072A0803110318013EC3
:100CE0000319732EB6072B0803110318013E0319CD
:100CF0007A2EB7072208A8002808F00025080A1253
:100D00008A154E210A128A11710883120313B90041
:100D10007008B8003808A8003908A900AA01AB017A
:100D20002808B407290803110318013E0319992E56
:100D3000B5072A0803110318013E0319A02EB607B0
:100D40002B0803110318013E0319A72EB707220829
:100D5000A8002808F00026080A128A154E210A1257
:100D60008A11710883120313B9007008B80038089B
:100D7000A8003908A900AA01AB0108300310A80D8A
:100D8000A90DAA0DAB0DFF3E031DBE2E2808B4070A
:100D9000290803110318013E0319CF2EB5072A08AD
:100DA00003110318013E0319D62EB6072B080311B1
:100DB0000318013E0319DD2EB7072E08A8002F08DF
:100DC000A9003008AA003108AB0018300310AB0CA2
:100DD000AA0CA90CA80CFF3E031DE62E2808B40798
:100DE000290803110318013E0319F72EB5072A0835
:100DF00003110318013E0319FE2EB6072B08031139
:100E00000318013E0319052FB7070830A800031087
:100E1000AE0DAF0DB00DB10DA80B072F3308320783
:100E2000A800A901A90D2808823EB80029080318C6
:100E3000013EFF3EB900392F0130A8000310B40D68
:100E4000B50DB60DB70DA80B1E2FB11F282F292FDA
:100E50002A2F34140130A8000310AE0DAF0DB00DD1
:100E6000B10DA80B2C2FFF30B8070318B90AFF30BB
:100E7000B907B61F3C2F3D2F1C2FB201B11F412FC8
:100E8000422F5E2FFF302E05A800FF302F05A9004E
:100E9000FF303005AA007F303105AB002B082A0453
:100EA000290428040319552F562F592FB201B20ACD
:100EB0005E2F341C5C2F5D2F5E2F562F32080319D6
:100EC000622F632F942F0130B407003003180130D4
:100ED000B507003003180130B607003003180130A1
:100EE000B707371C742F752F942F3408A8003508C6
:100EF000A9003608AA003708AB000130AC002B0D62
:100F0000AB0CAA0CA90CA80CAC0B7F2F2B08B700BC
:100F10002A08B6002908B5002808B4000130B8072F
:100F20000318B90A0030B9073908803AFF00803049
:100F30007F02031D9D2FFF303802031CA02FA12F1D
:100F4000AC2F7F3083120313B7008030B60000301F
:100F5000B5000030B400E12F831203133908803A42
:100F6000FF0080307F02031DB72F013038020318C5
:100F7000BA2FBB2FC72F003083120313B7000030E6
:100F8000B6000030B5000030B400AD01E12F83128F
:100F900003133808A8002808B300FF30B405FF3059
:100FA000B5057F30B6050030B705331CD82FD92FD3
:100FB000DA2FB6173308A8000310280CA900290857
:100FC000B7002D08A8002808B7043708A300360882
:100FD000A2003508A1003408A00008008312031302
:100FE000EE01EF0183160313AA01AB01AC01AD01C1
:100FF000AE01AF01B001B10183010A128A15A92D1A
:1010000008308A000408840A8207003453343134DB
:101010003A340034533432343A34003453343334B1
:041020003A3400342A
:101170000A128A15D4200A128A1583160313111431
:1011800008000A128A15D4200A128A15831603133E
:10119000111508000A128A15D4200A128A1570083F
:1011A0008312031393000800831603131419D9281C
:1011B000DA28D42811081F39031DDF28E028D42895
:1011C000080000300A128A15EE200A128A15013032
:1011D0000A128A15EE200A128A150800F3008312FB
:1011E0000313081173080A128A1508210A128A15B6
:1011F0008312031388150630F2003030F100F10B32
:10120000FF28F20BFF280000831203138811080047
:10121000F000701C0C290D291129831203130816E4
:101220001429831203130812F01C172918291A29EC
:1012300088161B298812701D1E291F2921290817AD
:1012400022290813F01D252926292829881729294C
:101250008813080083160313860183160317890178
:10126000831603138501880189010F128F160F174A
:101270000F148312031385018601870188018901F8
:101280000030A3000130A2008630A100A030A000F1
:101290000A128A15DA210A128A150800F800F401E8
:1012A000F5017008F200F3017208F6007308F70008
:1012B000781C5B295C2962297608F4070318F50A73
:1012C0007708F50701300310F60DF70DFF3E031DFB
:1012D00063290310F80C7808031D6F297029582919
:1012E0007508F1007408F00008000A128A15D4206D
:1012F0000A128A158316031391150A128A15D4202F
:101300000A128A15831203131308F200F3017208FC
:10131000F4007308F5000A128A15D4200A128A15FF
:1013200070037104031D952996299A2983160313C6
:1013300091129D2983160313911611167508F10059
:101340007408F0000800F40074080F39F100710807
:10135000F2007408F039F1007108F30083120313EE
:1013600008157308F10004300310F10CFF3E031D53
:10137000B42971080A128A1508210A128A158312E3
:10138000031388150D30F100F10BC42983120313E8
:10139000881172080A128A1508210A128A15831206
:1013A000031388150D30F100F10BD42983120313B8
:1013B0008811080028308312031394008316031346
:1013C0009101831203132008A4002108A50022081C
:1013D000A6002308A70002300310A40DA50DA60D3A
:1013E000A70DFF3E031DEC292708F3002608F20095
:1013F0002508F1002408F0000030F7003D30F60029
:101400000930F5000030F4000A128A151A230A1276
:101410008A157008FF3E8316031393009401871505
:1014200007160800F7007703031D172A182A3B2A1E
:1014300074087F3EF5007508FA007A08F50004305C
:101440000310F50CFF3E031D202A7508F6007608F0
:10145000F8007A080F39F5007508F90078080A12C3
:101460008A15EE200A128A1579080A128A15EE20CA
:101470000A128A15632A02307706031D402A412A80
:10148000632A7408BF3EF5007508FA007A08F50073
:1014900004300310F50CFF3E031D492A7508F600C1
:1014A0007608F8007A080F39F5007508F900780811
:1014B0000A128A15EE200A128A1579080A128A156C
:1014C000EE200A128A150800F601F31F682A692A1D
:1014D000702AF209F309F20A0319F30AF601F60A6F
:1014E000F11F732A742A792AF009F109F00A031905
:1014F000F10A7008710403197E2A7F2AAE2AF501C9
:10150000F50A8D2A01300310F00DF10DFF3E031D89
:10151000832A0130F4007408F507F11F902A912AFC
:10152000822A71087302031D972A70087202031C35
:101530009A2A9B2AA12A7008F2027108031CF3035D
:10154000F30201300310F10CF00CFF3E031DA22A40
:101550000130F502031DAD2AAE2A912A760803193F
:10156000B22AB32AB82AF209F309F20A0319F30AD4
:101570007308F1007208F000080000300A128A15A2
:1015800008210A128A151A30F500F830F400F40B1D
:10159000C72AF50BC72A000003300A128A15EE206D
:1015A0000A128A150730F5007D30F400F40BD62AB4
:1015B000F50BD62A03300A128A15EE200A128A1574
:1015C0000F30F5004730F400F40BE42AF50BE42A61
:1015D000E92A03300A128A15EE200A128A1502300F
:1015E0000A128A15EE200A128A1502300A128A158A
:1015F000EE200A128A1508300A128A15EE200A1205
:101600008A1500300A128A15EE200A128A150C304B
:101610000A128A15EE200A128A1500300A128A155B
:10162000EE200A128A1506300A128A15EE200A12D6
:101630008A1508000030FC000030FB000030FA0082
:101640000030F90073087204710470040319292B27
:101650002A2B772BFD01FD0A3A2B0130F8000310ED
:10166000F00DF10DF20DF30DF80B2F2B0130F800FA
:101670007808FD07F31F3D2B3E2B2D2B0130F80082
:101680000310F90DFA0DFB0DFC0DF80B402B730840
:101690007702031D552B72087602031D552B710826
:1016A0007502031D552B70087402031C582B592B0F
:1016B000682B7008F4027108031C710FF5027208A0
:1016C000031C720FF6027308031C730FF7027914E0
:1016D00001300310F30CF20CF10CF00CFF3E031D73
:1016E000692B0130FD02031D762B772B3E2B7C08E6
:1016F000F3007B08F2007A08F1007908F000080096
:10170000F601F11F842B852B8C2BF009F109F00ACF
:101710000319F10AF601F60AF31F8F2B902B992B70
:10172000F209F309F20A0319F30A0130F40074080C
:10173000F606F701F801700871040319A02BA12B1C
:10174000D82BF501F50AAF2B01300310F00DF10D88
:10175000FF3E031DA52B0130F4007408F507F11FAF
:10176000B22BB32BA42B01300310F70DF80DFF3E65
:10177000031DB42B71087302031DC02B7008720285
:10178000031CC32BC42BCB2B7008F2027108031C63
:10179000F303F302771401300310F10CF00CFF3E59
:1017A000031DCC2B0130F502031DD72BD82BB32BF7
:1017B00076080319DC2BDD2BE22BF709F809F70A71
:1017C0000319F80A7808F1007708F0000800FC0017
:1017D0006430F0000030F1007C08F900FA0179086B
:1017E000F2007A08F3000A128A1580230A128A1579
:1017F0007008FB007B0883160313AB006430F00015
:101800000030F1007C08F900FA017908F2007A084A
:10181000F3000A128A1564220A128A157008FB0066
:101820007B0883160313AA000A30F0000030F10091
:101830002A08F900FA017908F2007A08F3000A127E
:101840008A1580230A128A157008FB007B08831210
:101850000313EF000A30F0000030F1008316031389
:101860002A08F900FA017908F2007A08F3000A124E
:101870008A1564220A128A157008FB007B088312FD
:101880000313EE003030F900790883160313AB0719
:101890003030F900790883120313EF073030F90074
:1018A0007908EE0708000310831203136A0D6B0D0D
:1018B00083160313A000200883120313ED006D08A4
:1018C000031D632C642C6D2C0030EB000030EA000B
:1018D0000030E9000030E800EE2C6808831603139E
:1018E000A00083120313690883160313A100831257
:1018F00003136A0883160313A200831203136B08F1
:1019000083160313A3001F300310A30CA20CA10C19
:10191000A00CFF3E031D842C2008A4002408831281
:101920000313EC00EA17FF30E805FF30E905FF304C
:10193000EA050030EB059630ED02ED1FA02CA12C3E
:10194000BF2C6D08803A973E0318A72CA82CA92C11
:10195000642C01300310EB0CEA0CE90CE80CFF3EA0
:10196000031DAA2C013083160313A0002008831244
:101970000313ED07031DBD2CBE2CA92CDE2C20303B
:101980006D02031CC42CC52CD92C642C0130831689
:101990000313A000031083120313E80DE90DEA0DF1
:1019A000EB0D83160313A00BCA2C01308312031313
:1019B000ED026D08031DDD2CDE2CC62C6C0803190E
:1019C000E22CE32CEE2CE809E909EA09EB09E80A24
:1019D0000319E90A0319EA0A0319EB0A0800F800D7
:1019E00078080319F42CF52C092DF31FF82CF92C89
:1019F000092D7009FA007109FB007209FC007309D6
:101A0000FD00FA0A0319FB0A0319FC0A0319FD0A6F
:101A1000112D7308FD007208FC007108FB007008AE
:101A2000FA007308720471047004031D182D192D37
:101A3000222D0030F3000030F2000030F1000030C1
:101A4000F000A82D9630F4007408F900342D013010
:101A5000F4007408F90701300310FD0CFC0CFB0CBA
:101A6000FA0CFF3E031D2C2DFE307D05031D392D84
:101A70003A2D272D562D0130F4007408F907013056
:101A8000FA07003003180130FB070030031801305B
:101A9000FC07003003180130FD0701300310FD0C76
:101AA000FC0CFB0CFA0CFF3E031D4E2DFF307D0598
:101AB000031D5B2D5C2D3B2D682D0130F90201309B
:101AC000F4000310FA0DFB0DFC0DFD0DF40B612D60
:101AD000FC1B6B2D6C2D722D023079020318712DB9
:101AE000722D5D2D7918752D762D7E2DFF30FA051E
:101AF000FF30FB057F30FC05FF30FD050310F90CBE
:101B00007908F400F501F601F70118300310F40D1F
:101B1000F50DF60DF70DFF3E031D862D7408FA0432
:101B20007508FB047608FC047708FD04780803199F
:101B30009A2D9B2DA02DF31F9E2D9F2DA02DFD17BF
:101B40007D08F3007C08F2007B08F1007A08F000C1
:101B500008000A128A152A210A128A15831603130D
:101B600088010A128A15BD220A128A150A128A15DC
:101B7000E1200A128A15F401F40A01300A128A15CA
:101B800012220A128A1501300A128A1103200A123F
:101B90008A15083083160313A5002508F4000130C8
:101BA0000A128A1512220A128A1505300A128A119F
:101BB00003200A128A150E3083160313A500250888
:101BC000F40001300A128A1512220A128A1509300D
:101BD0000A128A1103200A128A150A128A15B820DD
:101BE0000A128A155130F0000030F1000A128A15ED
:101BF000CA200A128A150030F000F1000A128A1574
:101C000075210A128A15700883160313A50025088A
:101C1000AE000A128A15C1200A128A1502308316F4
:101C20000313A7000430A600B930A500A50B162E9B
:101C3000A60B162EA70B162E1D2E0A128A15B820DB
:101C40000A128A158030F0000030F1000A128A155D
:101C5000CA200A128A15F330F0000030F1000A128F
:101C60008A15CA200A128A150A128A15C1200A1278
:101C70008A15023083160313A7000430A600B9307A
:101C8000A500A50B412EA60B412EA70B412E482ED9
:101C90000A128A15B8200A128A158130F000003025
:101CA000F1000A128A15CA200A128A150030F000C3
:101CB000F1000A128A1575210A128A158316031378
:101CC000B1010030F000F1000A128A1575210A12E4
:101CD0008A15700883160313A5002508B107003084
:101CE000F000F1000A128A1575210A128A1570088F
:101CF00083160313A5002508B1000A128A15C12016
:101D00000A128A15023083160313A7000430A600B6
:101D1000B930A500A50B8A2EA60B8A2EA70B8A2EFA
:101D2000912E0A128A15B8200A128A156130F00025
:101D30000030F1000A128A15CA200A128A150030F2
:101D4000F000F1000A128A1575210A128A1570082E
:101D500083160313A5002508AD000A128A15C120B9
:101D60000A128A15023083160313A7000430A60056
:101D7000B930A500A50BBA2EA60BBA2EA70BBA2E0A
:101D8000C12EFC3083160313A5002508B1053108C8
:101D9000A500A601A701A8012808F3002708F20062
:101DA0002608F1002508F00001300A128A15EF24F8
:101DB0000A128A15730883120313A7007208A6007B
:101DC0007108A5007008A4004330A3002F30A200C2
:101DD000B830A1005230A0000A128A118D240A12D4
:101DE0008A15831203132308C1002208C0002108AA
:101DF000BF002008BE004730BD008030BC0000306E
:101E0000BB000030BA000A128A1128200A128A1573
:101E1000831203133D08DB003C08DA003B08D900BD
:101E20003A08D800C230D7003B30D6006630D50023
:101E30006630D4000A128A1105220A128A1583120A
:101E400003135708EB005608EA005508E900540848
:101E5000E8000A128A1553240A128A158312031302
:101E6000680883160313A9002908AF00F401F40AD7
:101E700002300A128A1512220A128A1583160313D7
:101E80002E080A128A15E7230A128A1583160313ED
:101E90002B080A128A15A3210A128A15023083160A
:101EA0000313A5002508F40002300A128A15122235
:101EB0000A128A15831203136F080A128A15A321C6
:101EC0000A128A15033083160313A5002508F400AF
:101ED00002300A128A1512220A128A15831203137B
:101EE0006E080A128A15A3210A128A150830831671
:101EF0000313A5002508F40002300A128A151222E5
:101F00000A128A15831603132D080A128A15E7236D
:101F10000A128A15831203136F080A128A15A32165
:101F20000A128A15093083160313A5002508F40048
:101F300002300A128A1512220A128A15831203131A
:101F40006E080A128A15A3210A128A150D3083160B
:101F50000313A5002508F40002300A128A15122284
:101F60000A128A158316031331080A128A15E72309
:101F70000A128A15831603132B080A128A15A32145
:101F80000A128A150E3083160313A5002508F400E3
:101F900002300A128A1512220A128A1583120313BA
:101FA0006F080A128A15A3210A128A150F308316A8
:101FB0000313A5002508F40002300A128A15122224
:101FC0000A128A15831203136E080A128A15A321B6
:101FD0000A128A15103083160313A5002508F40091
:101FE00002300A128A1512220A128A1527300A12A2
:101FF0008A15A3210A128A15ED2D0A128A110028CA
:04400E00D420FF3F7C
:00000001FF
