:020000040000FA
:060000000A128A11F92F1B
:100D68000A128A11D0260A128A1183160313111443
:100D780008000A128A11D0260A128A118316031350
:100D8800111508000A128A11D0260A128A11700851
:100D98008312031393000800831603131419D52E26
:100DA800D62ED02E11081F39031DDB2EDC2ED02E97
:100DB800080083160313860183160317890183121B
:100DC80003138601870188010030A3000130A200C7
:100DD8008630A100A030A0000A128A115B270A12EF
:100DE8008A1108000A128A11D0260A128A1183165B
:100DF800031391150A128A11D0260A128A11831236
:100E080003131308F200F3017208F4007308F500E5
:100E18000A128A11D0260A128A1170037104031D5E
:100E2800162F172F1B2F8316031391121E2F8316AD
:100E38000313911611167508F1007408F0000800E4
:100E48000A128A11DD260A128A110A128A11B42698
:100E58000A128A115130F0000030F1000A128A118A
:100E6800C6260A128A110030F000F1000A128A110F
:100E7800F6260A128A1170088312031386000A12D2
:100E88008A11BD260A128A11023083120313AA009E
:100E98000430A900B930A800A80B502FA90B502F77
:100EA800AA0B502F572F292F0A128A1100282830F1
:100EB80083120313940083160313910183120313FF
:100EC8002008A4002108A5002208A6002308A700DE
:100ED80002300310A40DA50DA60DA70DFF3E031D9E
:100EE8006D2F2708F3002608F2002508F1002408D2
:100EF800F0000030F7003D30F6000930F500003012
:100F0800F4000A128A1193270A128A117008FF3E08
:100F18008316031393009401871507160800003001
:100F2800FC000030FB000030FA000030F9007308C4
:100F38007204710470040319A22FA32FF02FFD016E
:100F4800FD0AB32F0130F8000310F00DF10DF20D7A
:100F5800F30DF80BA82F0130F8007808FD07F31FF0
:100F6800B62FB72FA62F0130F8000310F90DFA0D90
:100F7800FB0DFC0DF80BB92F73087702031DCE2F5C
:100F880072087602031DCE2F71087502031DCE2F3D
:100F980070087402031CD12FD22FE12F7008F402BD
:100FA8007108031C710FF5027208031C720FF60218
:100FB8007308031C730FF702791401300310F30C44
:100FC800F20CF10CF00CFF3E031DE22F0130FD0284
:100FD800031DEF2FF02FB72F7C08F3007B08F200DA
:100FE8007A08F1007908F000080083120313AB01B6
:080FF80083010A128A11242F63
:04400E00D420FF3F7C
:00000001FF
