:020000040000FA
:060000000A128A110C280F
:10000800FE00030EF2000A08F3000A128A116E2895
:100018000A128A110F28F60183010A128A11A928E7
:10002800013083160317880089018316031305140A
:1000380085170F168F160F170F14C330831203136B
:100048009F054230F400F40B2728000083120313A5
:100058001F139F171F14831603139F139F121F123A
:1000680007158714FA3092003F308312031397055F
:100078000F309D041708F0390C3897000F309500A1
:10008800CF3097050F309B001D129D128C10121057
:10009800921412158C1C512852284E288C10831645
:1000A8000313071187100C17831203130C138B17F4
:1000B8000B17831603138614081081130630950056
:1000C80096148B150B108312031385018701860183
:1000D80088010800831203130C1F73287428A228B0
:1000E8001F0CF000700C0F39003A031D7C287D2886
:1000F800A1281E08F0000310700C7C3E95001E0815
:100108000139F000F00EF00D17087006DF3970069F
:100118009700831603131E08F00007300310F00C35
:10012800FF3E031D92287008F100F10E831203139D
:1001380017087106EF39710697000C1373088A00C7
:10014800720E8300FE0E7E0E09000A128A11142018
:100158000A128A114230F500F50BB028000083120C
:0C01680003139F14AE280A128A110C2801
:04400E00D420FF3F7C
:00000001FF
