:020000040000FA
:060000000A128A110C280F
:10000800FE00030EF1000A08F2000A128A11742990
:100018000A128A110F28F801F901FA018312031351
:10002800A901AA01AB01AC0183010A128A1127298F
:10003800F5006A28C330831203139F052130F300AB
:10004800F30B2428831203131F139F131F14831603
:1000580003139F139F121F128028C33083120313A8
:100068009F052130F300F30B3728831203131F1762
:100078009F131F14831603139F139F121F128028A8
:10008800C330831203139F052130F300F30B4A2872
:10009800831203131F139F171F14831603139F1331
:1000A8009F121F128028C330831203139F0521302B
:1000B800F300F30B5D28831203131F179F171F14F8
:1000C800831603139F139F121F1280287508F300CD
:1000D800F4017408003A0319722880287308003A5A
:1000E80003191E28013A03193128033A0319442831
:1000F800013A031957288028080083120313A20025
:100108002203031D88288928AE2877087F3EA0008F
:100118002008A5002508A00004300310A00CFF3E0D
:10012800031D91282008A1002108A30025080F39E4
:10013800A0002008A40023080A128A1145220A12E6
:100148008A118312031324080A128A1145220A12FB
:100158008A11D82802302206031DB328B428D828CB
:100168007708BF3EA0002008A5002508A00004309D
:100178000310A00CFF3E031DBC282008A100210885
:10018800A3002508F039A0002008A40023080A12BB
:100198008A1145220A128A118312031324080A12AB
:1001A8008A1145220A128A11080000300A128A119F
:1001B8006C220A128A111A3083120313A100F73035
:1001C800A000A00BE528A10BE528EA2830300A1288
:1001D8008A1145220A128A11073083120313A100DB
:1001E8007C30A000A00BF628A10BF62800003030C8
:1001F8000A128A1145220A128A1141308312031306
:10020800A000A00B0529082930300A128A114522BE
:100218000A128A113C300A128A1145220A128A11DE
:1002280008300A128A1145220A128A1101300A126C
:100238008A1145220A128A1106300A128A114522A9
:100248000A128A1108000A128A11CB210A128A118D
:100258000A128A11D9200A128A110A128A115F22F7
:100268000A128A11F701F70A01300A128A1181204D
:100278000A128A1101300A128A11A2210A128A115D
:10028800F701F70A02300A128A1181200A128A112C
:1002980012300A128A11A2210A128A110B30831213
:1002A8000313A8002630A7005D30A600A60B5A2924
:1002B800A70B5A29A80B5A29831203139F186529DB
:1002C80066293629203083120313A600A60B6A2953
:1002D8000000831203139F1436290A128A110C286E
:1002E800831203130C1F79297A299B291F0CF0000C
:1002F800700C0F39003A031D822983298C291F08A5
:10030800C33904389F001E08F0007008FA009B29C2
:100318001F0CF000700C0F39013A031D9429952920
:100328009B29C3309F051E08F0007008F900720869
:100338008A00710E8300FE0E7E0E090083120313DD
:10034800A200A001A101BD292008220784000A12E9
:100358008A110D220A128A110A128A11F0210A1230
:100368008A11013083120313A0070318A10A003071
:10037800A1072008220784000A128A110D220A12F6
:100388008A11003A031DC929CA29A829080003307F
:100398008316031788008316031305148514880130
:1003A80089010F128F160F170F140C1783120313DE
:1003B8000C138B170B1785018601870188018901AA
:1003C8000A128A1129220A128A1101300A128A1184
:1003D8001C200A128A110800F5007508F400740838
:1003E800F6007608F4007408F70083120313091462
:1003F80077080A128A116C220A128A1183120313CF
:1004080009150D30F400F40B072A831203130911A0
:10041800080002308A000408840A82070034533432
:100428005F3431343A342034203453345F34323436
:100438003A342034203453345F3433343A3400347B
:1004480030342E343034303400346730831603139C
:1004580099009A0183160317871583160313181535
:1004680018128312031398171816831603131813F8
:1004780098168312031318138B170B170C128C1270
:100488000800F60083120313091076080A128A116D
:100498006C220A128A118312031309150630F5001B
:1004A8003030F400F40B562AF50B562A000083125C
:1004B80003130911080000300A128A1145220A1292
:1004C8008A1101300A128A1145220A128A1108007B
:0C04D800F300730883120313880008006F
:04400E00D420FF3F7C
:00000001FF
