:020000040000FA
:060000000A128A110C280F
:10000800FE00030EF1000A08F2000A128A11D52C2C
:100018000A128A110F28F801F901FA018313203016
:10002800840050300A128A11CF250A128A118301DE
:100038000A128A119129FF0000308A007F0882077E
:1000480024280A128A11C62D83120313E500742985
:10005800253064060319312832285828650A840097
:1000680083130008031939283A2849286408DC0052
:100078005C08F300650A840000080A128A111F2030
:100088000A128A11831203132B286408DC006508FE
:100098008400000884005C0880000130DC006508EA
:1000A80084005C0880072B28E0018028650A84000A
:1000B8008313000803196128622871286408DC008A
:1000C8005C08F300650A840000080A128A111F20E0
:1000D8000A128A11831203132B286408DC006508AE
:1000E8008400000884005C0880000130DC0065089A
:1000F80084005C0880072B285A08DD005908DC00BA
:10010800D90A0319DA0A5D08FF005C0884000A129C
:100118008A110C230A128A11E400DE00DF015F084D
:10012800003A031998285A285E08003A03198E29BC
:10013800643A0319A3280D3A0319A3285A285B081F
:10014800840083130008DC00023080075C08840008
:100158000008E200840A0008E300E31FB428B52879
:10016800BE280330DC005C08E004E209E309E20A87
:100178000319E30AE401E40A6408DC005C07013EB1
:1001880084000A128A1116230A128A11DD000A1243
:100198008A1116230A128A11DE005E086302031D03
:1001A800D7285D0862020318DA28DB28DC28E6284D
:1001B8000130DC005C08E40705306406031DE5280F
:1001C800E628C028600803390319EB28EC280F2912
:1001D800650A8400831300080319F328F428012909
:1001E8002D30DC005C08F300650A840000080A1260
:1001F8008A111F200A128A110F292D30DC00650888
:100208008400000884005C0880000130DC00650878
:1002180084005C088007831203136408DC005C0810
:10022800E10069290A30D3000030D4006108DC00FD
:100238005C07013E84000A128A1116230A128A11E9
:10024800F3000A128A1116230A128A11F4006308AD
:10025800F6006208F5000A128A110D240A128A11A2
:10026800740883120313D6007308D5000A128A1182
:1002780099240A128A11831203135308303EDD00B1
:100288005D08E400650A84008313000803194D29FA
:100298004E295B296408DC005C08F300650A8400C9
:1002A80000080A128A111F200A128A116929640893
:1002B800DC0065088400000884005C0880000130C8
:1002C800DC00650884005C088007FF308312031394
:1002D800DC005C08E107610A031D732974291629EB
:1002E800831203135A08DD005908DC00D90A0319E0
:1002F800DA0A5D08FF005C0884000A128A110C23E0
:100308000A128A11DE005E08E4006408031D8D29C4
:100318008E292C28D901DA0108000A128A1104252D
:100328000A128A110A128A11BF230A128A110A12A2
:100338008A11B9250A128A11F701F70A01300A123F
:100348008A1167230A128A110B3083120313D00013
:100358008030D1000A128A1153240A128A1183129A
:100368000313270883160313A0002008831203131E
:10037800A000260883160313A00020088312031385
:10038800A100403083160313A00020088312031332
:10039800E600270883160313A100A201210883128F
:1003A8000313E70083160313220883120313E800DC
:1003B8003C300A128A1129250A128A1149308316FB
:1003C8000313A000200883120313E60026088316EF
:1003D8000313A100A201210883120313E700831667
:1003E8000313220883120313E80028300A128A1123
:1003F80029250A128A11023083160313A000200847
:10040800F70002300A128A1167230A128A113C3057
:1004180083120313D0000030D1000A128A1153242A
:100428000A128A11283083120313D0000030D10039
:100438000A128A1153240A128A11831203139F186D
:10044800262A272A312A203083160313A000A00B5E
:100458002B2A0000831203139F140A128A113A22CE
:100468000A128A11B3290A128A110C28033083123E
:100478000313EE008A30ED005530EC00EC0B422AF5
:10048800ED0B422AEE0B422A293083120313E600B1
:100498008030E7000A128A1185250A128A113C3039
:1004A80083120313E6000030E7000A128A1185253B
:1004B8000A128A11463083120313E6008030E700DF
:1004C8000A128A1185250A128A110330831203132E
:1004D800EE008A30ED005530EC00EC0B712AED0B84
:1004E800712AEE0B712A353083120313E60080302F
:1004F800E7000A128A1185250A128A112830831208
:100508000313E6000030E7000A128A1185250A1253
:100518008A111C3083120313E6008030E7000A12A8
:100528008A1185250A128A11033083120313EE00FB
:100538008A30ED005530EC00EC0BA02AED0BA02A18
:10054800EE0BA02A0800F500F52AC3308312031326
:100558009F052130F300F30BAF2A831203131F13F7
:100568009F131F14831603139F139F121F120B2B25
:10057800C330831203139F052130F300F30BC22A03
:10058800831203131F179F131F14831603139F133C
:100598009F121F120B2BC330831203139F052130A8
:1005A800F300F30BD52A831203131F139F171F148D
:1005B800831603139F139F121F120B2BC330831232
:1005C80003139F052130F300F30BE82A831203136A
:1005D8001F179F171F14831603139F139F121F12B1
:1005E8000B2B7508F300F4017408003A0319FD2A6F
:1005F8000B2B7308003A0319A92A013A0319BC2ADC
:10060800033A0319CF2A013A0319E22A0B2B0800EF
:10061800FF1B162B83137F1883170008840A0319FE
:10062800FF0A080003308A000408840A820700349D
:10063800013400340A34003464340034E8340334B8
:100648001034273453345F3431343A34203420346E
:1006580053345F3432343A342034203453345F34E2
:1006680033343A3400340D342D342D342D342D34B4
:100678002D342D342D342D342D342D342D34003497
:100688000D3456346F346C34743461346A346534E0
:1006980031343A342034003456346F346C34743482
:1006A80061346A34653432343A34203400342534C1
:1006B800643420342034203400340D340D340034B4
:1006C80025346434003483120313D2005203031D0B
:1006D8006E2B6F2B942B77087F3ED0005008D500E7
:1006E8005508D00004300310D00CFF3E031D772BB3
:1006F8005008D1005108D30055080F39D0005008D0
:10070800D40053080A128A119F250A128A118312EB
:10071800031354080A128A119F250A128A11BE2B44
:1007280002305206031D992B9A2BBE2B7708BF3E29
:10073800D0005008D5005508D00004300310D00C64
:10074800FF3E031DA22B5008D1005108D3005508C5
:10075800F039D0005008D40053080A128A119F2596
:100768000A128A118312031354080A128A119F2548
:100778000A128A11080000300A128A11D7250A12B3
:100788008A111A3083120313D100F730D000D00B2E
:10079800CB2BD10BCB2BD02B30300A128A119F25B3
:1007A8000A128A11073083120313D1007C30D0005B
:1007B800D00BDC2BD10BDC2B000030300A128A1155
:1007C8009F250A128A11413083120313D000D00BDF
:1007D800EB2BEE2B30300A128A119F250A128A1150
:1007E8003C300A128A119F250A128A1108300A120F
:1007F8008A119F250A128A1101300A128A119F252F
:100808000A128A1106300A128A119F250A128A11C1
:10081800080083120313D101D20173087404031969
:10082800162C172C4E2CD001D00A252C0130031081
:10083800F30DF40DFF3E031D1B2C0130F700770864
:10084800D007F41F282C292C1A2C01300310D10DA5
:10085800D20DFF3E031D2A2C74087602031D362C88
:1008680073087502031C392C3A2C412C7308F502C5
:100878007408031CF603F602511401300310F40C3B
:10088800F30CFF3E031D422C0130D002031D4D2CFA
:100898004E2C292C5208F4005108F300080083124A
:1008A8000313D501D6017C2C55085007D3005108F5
:1008B800D2000318D20AD51F622CD2038312031365
:1008C8005208D4005408FF00530884000A128A1101
:1008D8000C230A128A110A128A114C250A128A114B
:1008E800013083120313D5070318D60A0030D60740
:1008F80055085007D3005108D2000318D20AD51F53
:10090800862CD203831203135208D4005408FF0024
:10091800530884000A128A110C230A128A11003A19
:10092800031D972C982C582C080083120313530886
:1009380054040319A02CA12CD02CD801D80AAF2C10
:1009480001300310D30DD40DFF3E031DA52C01303B
:10095800D7005708D807D41FB22CB32CA42C54089E
:100968005602031DB92C53085502031CBC2CBD2C80
:10097800C32C5308D5025408031CD603D6020130F1
:100988000310D40CD30CFF3E031DC42C0130D80235
:10099800031DCF2CD02CB32C5608D4005508D300F7
:1009A8000800831203130C1FDA2CDB2CFC2C1F0C01
:1009B800F000700C0F39003A031DE32CE42CED2CE9
:1009C8001F08C33904389F001E08F0007008A700EC
:1009D800FC2C1F0CF000700C0F39013A031DF52C8C
:1009E800F62CFC2CC3309F051E08F0007008A600EA
:1009F8000C1372088A00710E8300FE0E7E0E090029
:100A0800033083160317880083160313051485140F
:100A1800880189010F128F160F170F140C178312F4
:100A280003130C138B170B178501860187018801A7
:100A380089010A128A1169250A128A1101300A12DB
:100A48008A11A7220A128A11080083120313EA00E6
:100A58006A08E9006908EC00ED016730E9006908F7
:100A6800EB006608D9000030031D8030DA006B30D7
:100A7800E9006908DB006C300A128A1128200A1282
:100A88008A11831203136C08840083138001080001
:100A9800F5007508F4007408F6007608F400740888
:100AA800F70083120313091477080A128A11D7254D
:100AB8000A128A118312031309150D30F400F40B7E
:100AC800632D83120313091108006730831603137B
:100AD80099009A01831603178715831603131815AF
:100AE8001812831203139817181683160313181372
:100AF80098168312031318138B170B170C128C12EA
:100B0800080083120313EA010130E8006808EB00CB
:100B18006830E8006808E9006608D9006708DA0064
:100B28006930E8006808DB006A300A128A11282058
:100B38000A128A110800F6008312031309107608B6
:100B48000A128A11D7250A128A118312031309156A
:100B58000630F5003030F400F40BB02DF50BB02D55
:100B68000000831203130911080000300A128A11C9
:100B78009F250A128A1101300A128A119F250A122A
:100B88008A110800831203130C1ECB2DCC2DC62D01
:100B980073089900080064008001840A0406031998
:100BA80000340406D02DF300730883120313880061
:020BB800080033
:04400E00D420FF3F7C
:00000001FF
