:020000040000FA
:060000000A128A110C280F
:10000800FE00030EF1000A08F2000A128A119B2B67
:100018000A128A110F28F801F901FA018312031351
:10002800E101E201E301E401E501E60183010A12CD
:100038008A11082983120313B4002A30AC002C0853
:10004800AF00F1282530350603192B282C2838282D
:100058003508AC00340884002C0883138000013074
:10006800AC002C08B407F128B0010130A907FF3013
:10007800290784000A128A1171230A128A11B5000D
:10008800AC00AD012D08003A03194B28F1282C08C3
:10009800003A03190329643A031956280D3A03193B
:1000A8005628F1282F08840083130008B200840A18
:1000B8000008B3000230AC002C08AF07B31F652856
:1000C80066286F280330AC002C08B004B209B309C5
:1000D800B20A0319B30AB501B50A3508AC002C07F2
:1000E800013E84000A128A1171230A128A11AD0096
:1000F8000A128A1171230A128A11AE002E083302DD
:10010800031D88282D08320203188B288C288D2877
:1001180097280130AC002C08B50705303506031DBB
:100128009628972871283008033903199C289D2898
:10013800A8282D30AC00340884002C0883138000D4
:100148000130AC002C08B4073508AC002C08B1000D
:10015800E8280A30A3000030A4003108AC002C07BE
:10016800013E84000A128A1171230A128A11F300CF
:100178000A128A1171230A128A11F4003308F60050
:100188003208F5000A128A119F220A128A1174088D
:1001980083120313A6007308A5000A128A112B23E1
:1001A8000A128A11831203132308303EAD002D086A
:1001B800B5003508AC00340884002C08831380008F
:1001C8000130AC002C08B407FF30AC002C08B10794
:1001D800310A031DF028F128AD280130A907FF30A6
:1001E800290784000A128A1171230A128A11AC00A5
:1001F8002C08B5003508031D0229032926283408D0
:1002080084008313800108000A128A11CA230A1283
:100218008A110A128A1151220A128A110A128A11A3
:1002280042240A128A11F701F70A01300A128A11C8
:10023800F9210A128A110B3083120313A0008030AF
:10024800A1000A128A11E5220A128A111C308312AF
:100258000313B6003608A9006608B700B8013708C6
:10026800AA003808AB0039300A128A111E200A1277
:100278008A11223083120313B6003608A9006508D4
:10028800B700B8013708AA003808AB004D300A1289
:100298008A111E200A128A11023083120313B60033
:1002A8003608F70002300A128A11F9210A128A1157
:1002B800393083120313A0000030A1000A128A11FA
:1002C800E5220A128A114D3083120313A000003070
:1002D800A1000A128A11E5220A128A110630831235
:1002E8000313B8001330B700AD30B600B60B7A2947
:1002F800B70B7A29B80B7A29831203139F1885291B
:1003080086292A29203083120313B600B60B8A29BE
:100318000000831203139F142A290A128A110C2839
:10032800F500E229C330831203139F052130F3003F
:10033800F30B9C29831203131F139F131F14831697
:1003480003139F139F121F12F829C330831203133C
:100358009F052130F300F30BAF29831203131F17F6
:100368009F131F14831603139F139F121F12F8293C
:10037800C330831203139F052130F300F30BC22906
:10038800831203131F139F171F14831603139F133E
:100398009F121F12F829C330831203139F052130BF
:1003A800F300F30BD529831203131F179F171F148C
:1003B800831603139F139F121F12F8297508F30061
:1003C800F4017408003A0319EA29F8297308003A75
:1003D80003199629013A0319A929033A0319BC29D3
:1003E800013A0319CF29F829080083120313A20040
:1003F8002203031D002A012A262A77087F3EA0002F
:100408002008A5002508A00004300310A00CFF3E1A
:10041800031D092A2008A1002108A30025080F3977
:10042800A0002008A40023080A128A1128240A120E
:100438008A118312031324080A128A1128240A1223
:100448008A11502A02302206031D2B2A2C2A502AF0
:100458007708BF3EA0002008A5002508A0000430AA
:100468000310A00CFF3E031D342A2008A100210818
:10047800A3002508F039A0002008A40023080A12C8
:100488008A1128240A128A118312031324080A12D3
:100498008A1128240A128A11080000300A128A11C7
:1004A8004F240A128A111A3083120313A100F7305D
:1004B800A000A00B5D2AA10B5D2A622A30300A1227
:1004C8008A1128240A128A11073083120313A10003
:1004D8007C30A000A00B6E2AA10B6E2A00003030E1
:1004E8000A128A1128240A128A114130831203132E
:1004F800A000A00B7D2A802A30300A128A112824F5
:100508000A128A113C300A128A1128240A128A1106
:1005180008300A128A1128240A128A1101300A1294
:100528008A1128240A128A1106300A128A112824EC
:100538000A128A11080083120313A101A201730889
:1005480074040319A82AA92AE02AA001A00AB72A34
:1005580001300310F30DF40DFF3E031DAD2A0130E9
:10056800F7007708A007F41FBA2ABB2AAC2A013083
:100578000310A10DA20DFF3E031DBC2A74087602CC
:10058800031DC82A73087502031CCB2ACC2AD32A58
:100598007308F5027408031CF603F60221140130EF
:1005A8000310F40CF30CFF3E031DD42A0130A00203
:1005B800031DDF2AE02ABB2A2208F4002108F300E1
:1005C800080083120313A501A6010E2B2508200796
:1005D800A3002108A2000318A20AA51FF42AA20357
:1005E800831203132208A4002408FF0023088400B0
:1005F8000A128A1167230A128A110A128A11EF2332
:100608000A128A11013083120313A5070318A60AD8
:100618000030A60725082007A3002108A200031818
:10062800A20AA51F182BA203831203132208A400F1
:100638002408FF00230884000A128A1167230A127B
:100648008A11003A031D292B2A2BEA2A0800831253
:100658000313230824040319322B332B622BA8011C
:10066800A80A412B01300310A30DA40DFF3E031D62
:10067800372B0130A7002708A807A41F442B452BB8
:10068800362B24082602031D4B2B23082502031CA6
:100698004E2B4F2B552B2308A5022408031CA60319
:1006A800A60201300310A40CA30CFF3E031D562B19
:1006B8000130A802031D612B622B452B2608A400DC
:1006C8002508A3000800FF1B712B83137F188317CD
:1006D8000008840A0319FF0A080003308A00040886
:1006E800840A82070034013400340A340034643444
:1006F8000034E83403341034273453345F3431344D
:100708003A342034203453345F3432343A34203489
:10071800203453345F3433343A3400342534643469
:1007280020342034203400342534643400348312D7
:1007380003130C1FA02BA12BC22B1F0CF000700C55
:100748000F39003A031DA92BAA2BB32B1F08C33955
:1007580004389F001E08F0007008E600C22B1F0C2A
:10076800F000700C0F39013A031DBB2BBC2BC22BB8
:10077800C3309F051E08F0007008E5000C137208CE
:100788008A00710E8300FE0E7E0E09000330831668
:10079800031788008316031305148514880189013B
:1007A8000F128F160F170F140C17831203130C1345
:1007B8008B170B17850186018701880189010A12A9
:1007C8008A110C240A128A1101300A128A11942102
:1007D8000A128A110800F5007508F4007408F6007A
:1007E8007608F4007408F7008312031309147708D5
:1007F8000A128A114F240A128A1183120313091547
:100808000D30F400F40B062C8312031309110800B1
:1008180067308316031399009A0183160317871507
:100828008316031318151812831203139817181632
:1008380083160313181398168312031318138B17B0
:100848000B170C128C120800F60083120313091000
:1008580076080A128A114F240A128A118312031386
:1008680009150630F5003030F400F40B392CF50B7F
:10087800392C0000831203130911080000300A12F2
:100888008A1128240A128A1101300A128A1128248E
:100898000A128A110800F3007308831203138800F0
:0208A800080046
:04400E00D420FF3F7C
:00000001FF
