:020000040000FA
:060000000A128A110C280F
:10000800FE00030EF1000A08F2000A128A11EF2A14
:100018000A128A110F28F801F901FA018312031351
:10002800CD01CE01CF01D001D101D20183010A1245
:100038008A116D2983120313B4002A30AC002C08EE
:10004800AF00F1282530350603192B282C2838282D
:100058003508AC00340884002C0883138000013074
:10006800AC002C08B407F128B0010130A907FF3013
:10007800290784000A128A116C230A128A11B50012
:10008800AC00AD012D08003A03194B28F1282C08C3
:10009800003A03190329643A031956280D3A03193B
:1000A8005628F1282F08840083130008B200840A18
:1000B8000008B3000230AC002C08AF07B31F652856
:1000C80066286F280330AC002C08B004B209B309C5
:1000D800B20A0319B30AB501B50A3508AC002C07F2
:1000E800013E84000A128A116C230A128A11AD009B
:1000F8000A128A116C230A128A11AE002E083302E2
:10010800031D88282D08320203188B288C288D2877
:1001180097280130AC002C08B50705303506031DBB
:100128009628972871283008033903199C289D2898
:10013800A8282D30AC00340884002C0883138000D4
:100148000130AC002C08B4073508AC002C08B1000D
:10015800E8280A30A3000030A4003108AC002C07BE
:10016800013E84000A128A116C230A128A11F300D4
:100178000A128A116C230A128A11F4003308F60055
:100188003208F5000A128A116D220A128A117408BF
:1001980083120313A6007308A5000A128A11B3225A
:1001A8000A128A11831203132308303EAD002D086A
:1001B800B5003508AC00340884002C08831380008F
:1001C8000130AC002C08B407FF30AC002C08B10794
:1001D800310A031DF028F128AD280130A907FF30A6
:1001E800290784000A128A116C230A128A11AC00AA
:1001F8002C08B5003508031D0229032926283408D0
:100208008400831380010800F5005629C330831247
:1002180003139F052130F300F30B102983120313F6
:100228001F139F131F14831603139F139F121F126C
:100238006C29C330831203139F052130F300F30B9D
:100248002329831203131F179F131F1483160313E5
:100258009F139F121F126C29C330831203139F052B
:100268002130F300F30B3629831203131F139F1752
:100278001F14831603139F139F121F126C29C33078
:10028800831203139F052130F300F30B49298312CE
:1002980003131F179F171F14831603139F139F120F
:1002A8001F126C297508F300F4017408003A031949
:1002B8005E296C297308003A03190A29013A0319BF
:1002C8001D29033A03193029013A031943296C29D6
:1002D80008000A128A1147230A128A110A128A117F
:1002E8001F220A128A110A128A11E3230A128A119A
:1002F8001C3083120313B6003608A9005208B70051
:10030800B8013708AA003808AB0039300A128A1138
:100318001E200A128A11F701F70A01300A128A11FF
:10032800C7210A128A110B300A128A111E230A12D7
:100338008A11F701F70A02300A128A11C7210A1234
:100348008A1139300A128A1190230A128A110B3045
:1003580083120313B8002630B7005D30B600B60B21
:10036800B329B70BB329B80BB32920308312031371
:10037800B600B60BBD290000831203139F147C2915
:100388000A128A110C2883120313A2002203031DE8
:10039800CE29CF29F42977087F3EA0002008A500A0
:1003A8002508A00004300310A00CFF3E031DD72928
:1003B8002008A1002108A30025080F39A000200863
:1003C800A40023080A128A11C9230A128A11831267
:1003D800031324080A128A11C9230A128A111E2A31
:1003E80002302206031DF929FA291E2A7708BF3E82
:1003F800A0002008A5002508A00004300310A00CC8
:10040800FF3E031D022A2008A1002108A300250899
:10041800F039A0002008A40023080A128A11C92371
:100428000A128A118312031324080A128A11C92393
:100438000A128A11080000300A128A11F0230A12DF
:100448008A111A3083120313A100F730A000A00B01
:100458002B2AA10B2B2A302A30300A128A11C923E1
:100468000A128A11073083120313A1007C30A000FE
:10047800A00B3C2AA10B3C2A000030300A128A113A
:10048800C9230A128A11413083120313A000A00B5A
:100498004B2A4E2A30300A128A11C9230A128A11AD
:1004A8003C300A128A11C9230A128A1108300A122A
:1004B8008A11C9230A128A1101300A128A11C92322
:1004C8000A128A1106300A128A11C9230A128A11DD
:1004D800080083120313A101A2017308740403190D
:1004E800762A772AAE2AA001A00A852A01300310AD
:1004F800F30DF40DFF3E031D7B2A0130F70077084A
:10050800A007F41F882A892A7A2A01300310A10D2E
:10051800A20DFF3E031D8A2A74087602031D962A3F
:1005280073087502031C992A9A2AA12A7308F502EE
:100538007408031CF603F602211401300310F40CAE
:10054800F30CFF3E031DA22A0130A002031DAD2AB1
:10055800AE2A892A2208F4002108F3000800831231
:100568000313230824040319BA2ABB2AEA2AA80178
:10057800A80AC92A01300310A30DA40DFF3E031DCC
:10058800BF2A0130A7002708A807A41FCC2ACD2A14
:10059800BE2A24082602031DD32A23082502031C89
:1005A800D62AD72ADD2A2308A5022408031CA60375
:1005B800A60201300310A40CA30CFF3E031DDE2A83
:1005C8000130A802031DE92AEA2ACD2A2608A40038
:1005D8002508A3000800831203130C1FF42AF52A28
:1005E800162B1F0CF000700C0F39003A031DFD2A62
:1005F800FE2A072B1F08C33904389F001E08F00085
:100608007008D200162B1F0CF000700C0F39013A3D
:10061800031D0F2B102B162BC3309F051E08F0004F
:100628007008FA000C1372088A00710E8300FE0E1F
:100638007E0E090083120313A000A101A201392B29
:100648002108200784000A128A116C230A128A11D1
:100658000A128A1190230A128A1101308312031395
:10066800A1070318A20A0030A20721082007840066
:100678000A128A116C230A128A11003A031D452BAB
:10068800462B242B08000330831603178800831693
:10069800031305148514880189010F128F160F178B
:1006A8000F140C17831203130C138B170B178501E8
:1006B80086018701880189010A128A11AD230A126D
:1006C8008A1101300A128A1108210A128A110800B7
:1006D80003308A000408840A820700340134003495
:1006E8000A34003464340034E834033410342734D2
:1006F80053345F3431343A342034203453345F3443
:1007080032343A342034203453345F3433343A3476
:100718000034253464340034F5007508F400740896
:10072800F6007608F4007408F7008312031309141E
:1007380077080A128A11F0230A128A118312031306
:1007480009150D30F400F40BA72B831203130911BC
:10075800080067308316031399009A01831603175C
:100768008715831603131815181283120313981785
:1007780018168316031318139816831203131813E5
:100788008B170B170C128C120800F6008312031338
:10079800091076080A128A11F0230A128A118312A4
:1007A800031309150630F5003030F400F40BDA2B8A
:1007B800F50BDA2B0000831203130911080000302F
:1007C8000A128A11C9230A128A1101300A128A11DF
:1007D800C9230A128A110800F3007308831203134D
:0407E800880008007D
:04400E00D420FF3F7C
:00000001FF
