:020000040000FA
:060000000A128A110C280F
:10000800FE00030EF1000A08F2000A128A11792C88
:100018000A128A110F28F801F901FA018312031351
:10002800AB01AC01AD01AE01AF01B001B101B2014C
:1000380083010A128A1120280A128A11D1240A126D
:100048008A110A128A112B240A128A110A128A1199
:1000580068250A128A11F701F70A01300A128A1173
:1000680082230A128A1140300A128A11A8240A121D
:100078008A118312031332080A128A115A220A12A9
:100088008A11F701F70A02300A128A1182230A122A
:100098008A117A080A128A1115250A128A117930EA
:1000A8000A128A11A8240A128A1179080A128A11D6
:1000B80015250A128A1178080A128A1115250A12BA
:1000C8008A1176300A128A11A8240A128A110A1291
:1000D8008A11DA230A128A118312031331080A12C9
:1000E8008A115A220A128A117A080A128A111525C7
:1000F8000A128A1179300A128A11A8240A128A115E
:1001080079080A128A1115250A128A1178080A1222
:100118008A1115250A128A1176300A128A11A82422
:100128000A128A110A128A1180210A128A1183126C
:1001380003138C1EA028A1289B282B301A06031D08
:10014800A628A728AC280130A8002808AD079A01DE
:100158002D301A06031DB128B228BB280130AD0284
:100168002D0A031DB828B928BA28AD019A012D080F
:100178000A128A115A220A128A117A080A128A1154
:1001880015250A128A1179080A128A1115250A12E8
:100198008A1178080A128A1115250A128A1106305E
:1001A80083120313AA001330A900AD30A800A80BCE
:1001B800DB28A90BDB28AA0BDB28831203139F1863
:1001C800E628E7283D28203083120313A800A80B4F
:1001D800EB280000831203139F143D280A128A118A
:0201E8000C28E1
:1002000001308A000408840A820700340D34503417
:10021000613472346134203469346E34633472343E
:1002200065346D3465346E34743461347234203422
:1002300065346C34203463346F346E347434613418
:1002400064346F34723420347034723465347334EF
:1002500069346F346E34653420342B340D34793482
:100260002034703461347234613420346434653441
:100270006334723465346D3465346E34743461348F
:10028000723420342D340D34003453345F3431341F
:100290003A342034203453345F3432343A34203406
:1002A000203453345F3433343A3400340D3456340C
:1002B0006F346C34743461346A34653431343A34B4
:1002C0002034003456346F346C34743461346A34FE
:1002D000653432343A34203400342D342D342D3406
:1002E0002D342D342D342D342D342D342D34003433
:1002F0000D340D3400345634203400342E340034A0
:100300005D300A128A11F6240A128A118230831291
:100310000313A100DD30A000A00B8C29A10B8C29B8
:100320007A08831203139900823083120313A10009
:10033000DD30A000A00B9A29A10B9A2979300A126E
:100340008A11F6240A128A11823083120313A10043
:10035000DD30A000A00BAA29A10BAA2979088312DD
:1003600003139900823083120313A100DD30A00033
:10037000A00BB829A10BB8297808831203139900A0
:10038000823083120313A100DD30A000A00BC62928
:10039000A10BC62973300A128A11F6240A128A1197
:1003A000823083120313A100DD30A000A00BD629F8
:1003B000A10BD62968300A128A11F6240A128A1172
:1003C000823083120313A100DD30A000A00BE629C8
:1003D000A10BE62901300A128A11F6240A128A11A9
:1003E000080083120313A101F41FF729F829FF293C
:1003F000F309F409F30A0319F40AA101A10AF61F8B
:10040000022A032A0C2AF509F609F50A0319F60A45
:100410000130F7007708A106A201A3017308740454
:100420000319132A142A4B2AA001A00A222A0130F8
:100430000310F30DF40DFF3E031D182A0130F700E1
:100440007708A007F41F252A262A172A013003104F
:10045000A20DA30DFF3E031D272A74087602031D7B
:10046000332A73087502031C362A372A3E2A73087A
:10047000F5027408031CF603F6022214013003107F
:10048000F40CF30CFF3E031D3F2A0130A002031DB4
:100490004A2A4B2A262A210803194F2A502A552A6C
:1004A000A209A309A20A0319A30A2308F400220837
:1004B000F300080083120313A7006430F300003038
:1004C000F4002708A400A5012408F5002508F6007B
:1004D0000A128A11F1210A128A1173088312031376
:1004E000A6002608FA006430F3000030F400270864
:1004F000A400A5012408F5002508F6000A128A11B7
:1005000027230A128A11730883120313A6002608F0
:10051000AE000A30F3000030F4002E08A400A5015C
:100520002408F5002508F6000A128A11F1210A12A2
:100530008A11730883120313A6002608F9000A30F3
:10054000F3000030F4002E08A400A5012408F500F3
:100550002508F6000A128A1127230A128A11730845
:1005600083120313A6002608F8003030A4002408E4
:10057000FA073030A4002408F9073030A40024081A
:10058000F8070800F500102BC330831203139F05F2
:100590002130F300F30BCA2A831203131F139F1396
:1005A0001F14831603139F139F121F12262BC33091
:1005B000831203139F052130F300F30BDD2A83120E
:1005C00003131F179F131F14831603139F139F12E8
:1005D0001F12262BC330831203139F052130F30013
:1005E000F30BF02A831203131F139F171F14831694
:1005F00003139F139F121F12262BC3308312031362
:100600009F052130F300F30B032B831203131F17F5
:100610009F171F14831603139F139F121F12262B5D
:100620007508F300F4017408003A0319182B262BFF
:100630007308003A0319C42A013A0319D72A033A66
:100640000319EA2A013A0319FD2A262B080083120E
:100650000313A101F61F2D2B2E2B352BF509F609BF
:10066000F50A0319F60AA101A10AF41F382B392B48
:100670003E2BF309F409F30A0319F40A730874040E
:100680000319432B442B732BA001A00A522B0130DA
:100690000310F30DF40DFF3E031D482B0130F7004E
:1006A0007708A007F41F552B562B472B74087602AA
:1006B000031D5C2B73087502031C5F2B602B662BDC
:1006C0007308F5027408031CF603F60201300310E8
:1006D000F40CF30CFF3E031D672B0130A002031D39
:1006E000722B732B562B21080319772B782B7D2B1C
:1006F000F509F609F50A0319F60A7608F4007508F3
:10070000F300080083120313A2002203031D892BA8
:100710008A2BAF2B77087F3EA0002008A500250874
:10072000A00004300310A00CFF3E031D922B2008F4
:10073000A1002108A30025080F39A0002008A4006B
:1007400023080A128A114E250A128A1183120313F2
:1007500024080A128A114E250A128A11D92B023056
:100760002206031DB42BB52BD92B7708BF3EA00062
:100770002008A5002508A00004300310A00CFF3EAF
:10078000031DBD2B2008A1002108A3002508F03976
:10079000A0002008A40023080A128A114E250A127C
:1007A0008A118312031324080A128A114E250A1291
:1007B0008A11080051300A128A11F6240A128A118D
:1007C000823083120313A100DD30A000A00BE62BC2
:1007D000A10BE62B7A08831203139900823083124F
:1007E0000313A100DD30A000A00BF42BA10BF42B10
:1007F00079300A128A11F6240A128A118230831281
:100800000313A100DD30A000A00B042CA10B042CCD
:100810007908831203139900823083120313A10015
:10082000DD30A000A00B122CA10B122C7808831233
:1008300003139900823083120313A100DD30A0005E
:10084000A00B202CA10B202C73300A128A11F62445
:100850000A128A11080000300A128A117F250A1232
:100860008A111A3083120313A100F730A000A00BE5
:10087000372CA10B372C3C2C30300A128A114E2514
:100880000A128A11073083120313A1007C30A000E2
:10089000A00B482CA10B482C000030300A128A1102
:1008A0004E250A128A11413083120313A000A00BB7
:1008B000572C5A2C30300A128A114E250A128A11EE
:1008C0003C300A128A114E250A128A1108300A1287
:1008D0008A114E250A128A1101300A128A114E25F8
:1008E0000A128A1106300A128A114E250A128A113A
:1008F0000800831203130C1F7E2C7F2CA02C1F0CCE
:10090000F000700C0F39003A031D872C882C912CB5
:100910001F08C33904389F001E08F0007008B20099
:10092000A02C1F0CF000700C0F39013A031D992CFC
:100930009A2CA02CC3309F051E08F0007008B1004F
:100940000C1372088A00710E8300FE0E7E0E0900E1
:1009500083120313A200A001A101C32C20082207C7
:1009600084000A128A1100210A128A110A128A11BD
:1009700015250A128A11013083120313A0070318E8
:10098000A10A0030A1072008220784000A128A1158
:1009900000210A128A11003A031DCF2CD02CAE2C54
:1009A0000800033083160317880083160313051409
:1009B0008514880189010F128F160F170F140C1759
:1009C000831203130C138B170B1785018601870104
:1009D000880189010A128A1132250A128A1101300E
:1009E0000A128A11C2220A128A110800F700703016
:1009F000F4007408F500022D76080A128A11752594
:100A00000A128A110130F707FF30770784000A12B3
:100A10008A1100210A128A11F4007408F60076087F
:100A2000031D132D142DFC2C0800F5007508F4008F
:100A30007408F6007608F4007408F70083120313B4
:100A4000091477080A128A117F250A128A11831263
:100A5000031309150D30F400F40B2C2D831203132E
:100A60000911080067308316031399009A01831651
:100A7000031787158316031318151812831203130F
:100A80009817181683160313181398168312031356
:100A900018138B170B170C128C120800F600831218
:100AA0000313091076080A128A117F250A128A1187
:100AB0008312031309150630F5003030F400F40BEF
:100AC0005F2DF50B5F2D0000831203130911080041
:100AD00000300A128A114E250A128A1101300A12B8
:100AE0008A114E250A128A110800F300831203139B
:100AF0000C1E7B2D7C2D762D730899000800F300C9
:0A0B00007308831203138800080035
:04400E00D420FF3F7C
:00000001FF
