:020000040000FA
:060000000A128A110C280F
:10000800FE00030EF4000A08F5000A128A11AA2855
:100018000A128A110F280A128A11B1200A128A11AB
:10002800F0000A128A11B2200A128A11F1000A128B
:100038008A11B3200A128A11F2000A128A11B42016
:100048000A128A11F300F80183010A128A112C2876
:100058000A128A116B200A128A117803031D3528A7
:100068003628312883120313861673088500293031
:10007800F7009430F600F60B3F28F70B3F280000F6
:1000880072088312031385002930F7009430F600B4
:10009800F60B4C28F70B4C2800008312031386122A
:1000A8000617710885002930F7009430F600F60B22
:1000B8005B28F70B5B2800008312031306138617CF
:1000C80070088500F80131280A128A110C28831655
:1000D80003130614861406150510851005118511DD
:1000E80005128512051385138612061386138701D8
:1000F800880109108910831603178901880183165E
:1001080003130F128F120F170F148112811101148C
:10011800811401158530831203138100831603139C
:10012800161496140B108B178B158B160B11811345
:10013800151495141515951115129513831203139B
:1001480085018601870188018901080075088A00F0
:10015800740E8300FE0E7E0E09003F3406345B34B5
:020168004F3412
:04400E00D420FF3F7C
:00000001FF
