:020000040000FA
:060000000A128A110C280F
:10000800FE00030EF1000A08F2000A128A111628EF
:100018000A128A110F28F801F901FA0183010A125C
:100028008A111429831203130C1F1B281C282C283F
:100038001F0CF000700C0F39003A031D24282528E6
:100048002B281E0886001E08F0007008FA000C1302
:100058008C1D2F28302886281412141B3428352884
:100068003928941F3828392840281308F0007008C8
:10007800F90014139413141683160313941A4528BD
:1000880046286328141949284A2863288312031329
:100098001308F0007008F9008C1114168316031366
:1000A800141C572858285228831203131308F000E9
:1000B8007008FA005330F000F00B60288328941A77
:1000C800662867288328141D6A286B2883288312CA
:1000D80003131308F0007008F900831603131410B3
:1000E8007A0883120313930014165330F000F00BB0
:1000F8007B28831603131418822883287D288312EB
:1001080003138C1172088A00710E8300FE0E7E0E96
:100118000900F500DB28C330831203139F05213043
:10012800F300F30B9528831203131F139F131F1457
:10013800831603139F139F121F12F128C3308312D3
:1001480003139F052130F300F30BA8288312031330
:100158001F179F131F14831603139F139F121F1239
:10016800F128C330831203139F052130F300F30BEA
:10017800BB28831203131F139F171F14831603131F
:100188009F139F121F12F128C330831203139F0578
:100198002130F300F30BCE28831203131F179F1788
:1001A8001F14831603139F139F121F12F12875083B
:1001B800F300F4017408003A0319E328F1287308DE
:1001C800003A03198F28013A0319A228033A0319A0
:1001D800B528013A0319C828F1280800831603171F
:1001E8000814831603130514860101300A128A11B4
:1001F8008D200A128A11831603130F128F160F17F8
:100208000F140C17831203130C138B170B1785018C
:10021800860150300A128A112F210A128A11080009
:100228000A128A11F2200A128A11831203139F18E4
:100238001E291F2919298230F700DD30F600F60B38
:100248002329F70B23292829831203139F1419291B
:100258000A128A110C28F3007308831603139300FB
:1002680036308312031394008030831603139400EE
:1002780001309100871507168B170B17831203138C
:0A0288008C11831603138C15080077
:04400E00D420FF3F7C
:00000001FF
