:020000040000FA
:060000000A128A110C280F
:10000800FE00030EF1000A08F2000A128A111628EF
:100018000A128A110F28F801F901FA0183010A125C
:100028008A113129831203130C1F1B281C282C2822
:100038001F0CF000700C0F39003A031D24282528E6
:100048002B281E0886001E08F0007008FA000C1302
:100058008C1D2F283028A3281412141B3428352867
:100068003928941F3828392840281308F0007008C8
:10007800F90014139413141683160313941A4528BD
:1000880046286928141949284A286928831203131D
:100098001308F0007008F9008C1114168316031366
:1000A800141C572858285228831203131308F000E9
:1000B8007008FA005330F000F00B60288312031325
:1000C8001308F0007008F800A128941A6C286D280D
:1000D800A128141D70287128A1288312031313085E
:1000E800F0007008F9008316031314107A088312BD
:1000F8000313930014165330F000F00B8128831675
:1001080003131418882889288328831203131308D3
:10011800F0007008F900831603131410780883128E
:100128000313930014165330F000F00B992883162C
:1001380003131418A028A1289B2883128C11720875
:100148008A00710E8300FE0E7E0E0900F500F82865
:10015800C330831203139F052130F300F30BB22839
:10016800831203131F139F131F14831603139F1364
:100178009F121F120E29C330831203139F052130CB
:10018800F300F30BC528831203131F179F131F14C3
:10019800831603139F139F121F120E29C330831255
:1001A80003139F052130F300F30BD82883120313A0
:1001B8001F139F171F14831603139F139F121F12D9
:1001C8000E29C330831203139F052130F300F30B6C
:1001D800EB28831203131F179F171F14831603138B
:1001E8009F139F121F120E297508F300F40174085B
:1001F800003A031900290E297308003A0319AC289C
:10020800013A0319BF28033A0319D228013A0319FE
:10021800E5280E290800831603170814831603130C
:100228000514860101300A128A11AA200A128A11BD
:10023800831603130F128F160F170F140C17831240
:1002480003130C138B170B178501860150300A1204
:100258008A114C210A128A1108000A128A110F21E8
:100268000A128A11831203139F183B293C29362945
:100278008230F700DD30F600F60B4029F70B4029F5
:100288004529831203139F1436290A128A110C2850
:10029800F300730883160313930036308312031395
:1002A8009400803083160313940001309100871561
:1002B80007168B170B17831203138C11831603135E
:0402C8008C15080089
:04400E00D420FF3F7C
:00000001FF
